:100000000C9433040C9464040C9464040C94640401
:100010000C9464040C9464040C9464040C946404C0
:100020000C9464040C9464040C9464040C946404B0
:100030000C9464040C9464040C9464040C946404A0
:100040000C9464040C9464040C9464040C94640490
:100050000C9464040C9464040C9464040C940F08D1
:100060000C9464040C94790E0C94450F0C94640465
:100070000C9464040C9464040C9464040C94640460
:100080000C9464040C9464040C9464040C94640450
:100090000C94AC0E0C94840F0C9464040C946404C3
:1000A0000C9464040C9464040C9464040C94640430
:1000B0000C9464040C9464040C9464040C94640420
:1000C0000C9464040C9464040C9464040C94DF0E8B
:1000D0000C94C30F0C9464040C94120F0C94021033
:1000E0000C9464044209450938093C097C09490912
:1000F0004D09530957095B096109650969097C09BB
:100100006F097309770907634236B79BD8A71A3975
:10011000685618AEBAAB558C1D3CB7CC5763BD6D55
:10012000EDFD753EF6177231BF000000803F0800FC
:100130000000BE922449123EABAAAA2ABECDCCCC66
:100140004C3E00000080BEABAAAAAA3E0000000000
:10015000BF000000803F0000000000084178D3BBD2
:100160004387D1133D190E3CC3BD4282AD2B3E687F
:10017000EC8276BED98FE1A93E4C80EFFFBE01C470
:10018000FF7F3F00000000000C9477090C946E196B
:100190000C9461090C94F20D0C943B1E0C94751296
:1001A0000C9445120C9492180C945B090C94BD0DA0
:1001B0000C9445090C9465090C94D60D0C94120E00
:1001C0000C9443140C946D130C9442090C949D18D8
:1001D0000C94E3130C944C120C94C4180C947309F3
:1001E0000C947C090C94AC190C94FA180C946412BD
:1001F0000C9444120C9453090C944D090C94BA12AB
:100200000C947C1C0C9434190C94160B0C946F09F0
:100210000C94B1180C949B110C9438090C943C0963
:100220000C9442140C94C9100C941D0E0C9474126E
:100230000C94FE120C94AA170C94C60D0C94581230
:100240000C944F130C9457090C9449090C94C01D3D
:100250000C94FB040C94C81C0C9469090000090A56
:1002600002080B0C0D07060304010000000000004B
:10027000000000000000000000000000000000007E
:10028000000000000000000011100F00000000003E
:10029000000000000000000000000000000000005E
:1002A000000001021020200808102040102040808B
:1002B000020102010804020101020408102040802A
:1002C00080402010080402018004020180402010B8
:1002D0000804020108040201010204081020408001
:1002E00001020408102040800505050507050808DF
:1002F0000808020202020A0A0808040404040101B0
:1003000001010101010103030303030303030407C4
:1003100007070C0C0C0C0C0C0C0C0202020206065B
:100320000606060606060B0B0B0B0B0B0B0B000051
:100330002200250028002B002E003100340002018D
:100340000000050108010B01000021002400270026
:100350002A002D00300033000101000004010701D4
:100360000A0100000000003E5B4F5B3E3E6B4F6B9E
:100370003E1C3E7C3E1C183C7E3C181C577D571C86
:100380001C5E7F5E1C00183C1800FFE7C3E7FF00FF
:1003900018241800FFE7DBE7FF30483A060E26294D
:1003A000792926407F050507407F05253F5A3CE710
:1003B0003C5A7F3E1C1C08081C1C3E7F14227F22D6
:1003C000145F5F005F5F06097F017F006689956AA1
:1003D000606060606094A2FFA29408047E0408102C
:1003E000207E201008082A1C08081C2A08081E1055
:1003F0001010100C1E0C1E0C30383E3830060E3E0D
:100400000E06000000000000005F0000000700076B
:1004100000147F147F14242A7F2A12231308646295
:1004200036495620500008070300001C22410000F6
:1004300041221C002A1C7F1C2A08083E0808008054
:1004400070300008080808080000606000201008EC
:1004500004023E5149453E00427F400072494949ED
:10046000462141494D331814127F1027454545391F
:100470003C4A494931412111090736494949364623
:100480004949291E00001400000040340000000803
:1004900014224114141414140041221408020159A6
:1004A00009063E415D594E7C1211127C7F49494933
:1004B000363E414141227F4141413E7F49494941C8
:1004C0007F090909013E414151737F0808087F00F7
:1004D000417F41002040413F017F081422417F407D
:1004E0004040407F021C027F7F0408107F3E414154
:1004F000413E7F090909063E4151215E7F091929C4
:1005000046264949493203017F01033F4040403FAD
:100510001F2040201F3F4038403F631408146303EE
:10052000047804036159494D43007F41414102046D
:10053000081020004141417F040201020440404074
:100540004040000307080020545478407F2844446A
:10055000383844444428384444287F385454541884
:1005600000087E090218A4A49C787F08040478007F
:10057000447D40002040403D007F10284400004161
:100580007F40007C047804787C0804047838444474
:100590004438FC1824241818242418FC7C0804046B
:1005A00008485454542404043F44243C4040207CD4
:1005B0001C2040201C3C4030403C44281028444C27
:1005C0009090907C4464544C4400083641000000F4
:1005D000770000004136080002010204023C262395
:1005E000263C1EA1A161123A4040207A385454554D
:1005F0005921555579412254547842215554784017
:1006000020545579400C1E5272123955555559399E
:100610005454545939555454580000457C410002F3
:10062000457D420001457C407D1211127DF0282558
:1006300028F07C545545002054547C547C0A097F92
:100640004932494949323A4444443A324A484830A6
:100650003A4141217A3A42402078009DA0A07D3D58
:100660004242423D3D4040403D3C24FF2424487EE0
:100670004943662B2FFC2F2BFF0929F620C0887ECB
:10068000090320545479410000447D413048484AD0
:1006900032384040227A007A0A0A727D0D19317D83
:1006A0002629292F28262929292630484D40203857
:1006B0000808080808080808382F10C8ACBA2F1016
:1006C0002834FA00007B000008142A142222142A7D
:1006D00014085500550055AA55AA55AAFF55FF55AF
:1006E000FF000000FF00101010FF00141414FF00A2
:1006F0001010FF00FF1010F010F0141414FC001480
:1007000014F700FF0000FF00FF1414F404FC14149D
:1007100017101F10101F101F1414141F001010109A
:10072000F0000000001F101010101F10101010F02B
:1007300010000000FF101010101010101010FF100B
:10074000000000FF140000FF00FF00001F10170052
:1007500000FC04F414141710171414F404F400002B
:10076000FF00F714141414141414F700F7141414DD
:10077000171410101F101F141414F4141010F0107C
:10078000F000001F101F0000001F14000000FC14E8
:100790000000F010F01010FF10FF141414FF1410DC
:1007A00010101F00000000F010FFFFFFFFFFF0F02F
:1007B000F0F0F0FFFFFF0000000000FFFF0F0F0F41
:1007C0000F0F3844443844FC4A4A4A347E02020639
:1007D00006027E027E0263554941633844443C046C
:1007E000407E201E2006027E020299A5E7A5991CE4
:1007F0002A492A1C4C7201724C304A4D4D30304807
:10080000784830BC625A463D3E494949007E010164
:10081000017E2A2A2A2A2A44445F444440514A44F9
:100820004040444A51400000FF0103E080FF0000C7
:1008300008086B6B083612362436060F090F0600BF
:100840000018180000001010003040FF0101001FC8
:1008500001011E00191D1712003C3C3C3C00000029
:100860000000FB04C91011241FBECFEFD1E2DEBF90
:10087000CDBF00E00CBF12E0A0E0B2E0E8E5F9E493
:1008800000E00BBF02C007900D92AC3AB107D9F758
:100890002DE0ACEAB2E001C01D92AC36B207E1F740
:1008A00014E0C3E3D4E000E006C021970109802FE3
:1008B000FE010E945D24C133D10780E00807A9F73B
:1008C0000E94AA070C9420200C940000EF92FF9243
:1008D0000F931F93CF93DF93FA01EE0FFF1F9F013A
:1008E0002F5F3F4FDF01129626173707A4F4E90167
:1008F000CC0FDD1FC80FD91F08811981EC01CE0F65
:10090000DF1F0990D881C02DC017D10724F4A61786
:10091000B707D4F404C0A617B7075CF59A018D0198
:10092000000F111F080F191FE901CC0FDD1F7E01F9
:10093000E80EF91EE80108811981E701E880F980D5
:10094000E016F1060CF49D012417350791F0D9014A
:10095000AA0FBB1FA80FB91FE80FF91F40815181D3
:10096000CD91DC911197D183C0834D935C93A90104
:10097000B3CFDF91CF911F910F91FF90EF9008952A
:10098000EF92FF920F931F93CF93DF937C01EB01C4
:100990008B0177FF02C00F5F1F4F15950795015020
:1009A000110917FD06C0A801BE01C7010E94660417
:1009B000F6CF8E0101501109CC0FDD1FCE0DDF1DCA
:1009C00017FD12C0F701808191813A912A913183FC
:1009D00020839983888340E050E0B801C7010E94DA
:1009E000660401501109ECCFDF91CF911F910F9157
:1009F000FF90EF9008952FEF49E06AE084E89AE0D5
:100A00000E94C51980E091E00E94E9099093810A53
:100A10008093800A08952F923F924F925F926F9237
:100A20007F928F929F92AF92BF92CF92DF92EF927E
:100A3000FF920F931F93CF93DF93CDB7DEB72C9721
:100A40000FB6F894DEBF0FBECDBF8C011B016FEF58
:100A50007FEF84E89AE00E944F130D831E8321E00C
:100A600030E038872F83C12CD12C1C861B864DEF9C
:100A70005FEF5A87498788248A94982CAA24AA94DD
:100A8000BA2CC214D3040CF0DAC08C149D04ACF45C
:100A9000C401019695012E5F3F4F48E2429FF0014D
:100AA000439FF00D1124FC87EB879A8689864C01C1
:100AB000880C991CC50101965C01B5016F5F7F4FE1
:100AC000072E000C880B990B0E947A219B01AC0128
:100AD00060E070E080E090E40E9473222B013C0112
:100AE000B5010B2C000C880B990B0E947A219B01FD
:100AF000AC0160E070E080E090E40E9473226983C2
:100B00007A838B839C83C301B2010E944221AB0193
:100B1000BC01C601E985FA858E1B9F0BBA010E94B4
:100B2000082497FF03C0919581959109BC01990F05
:100B3000880B990B0E947A212B013C0120E030E0C8
:100B400040E85FE369817A818B819C810E94642007
:100B50009B01AC0160E070E080E793E40E94D0204C
:100B60009B01AC01C301B2010E9406220E944221F6
:100B70002B013C012F813885221533058CF4E12CA3
:100B8000F12C0B851C85025E1F4F9B0124513109FE
:100B90004B855C856A50710984E89AE00E946D1368
:100BA0003FEFC31AD30AC601880F991F8215930518
:100BB00094F4E12CF12C0B851C85025E1F4F9201F1
:100BC0002C5E3F4F4B855C85B201665F7F4F84E8AA
:100BD0009AE00E946D1300E018EF2CE030E04B85A6
:100BE0005C85B20184E89AE00E944D15B201625022
:100BF00071094B855C854550510984E89AE00E9453
:100C0000801861E084E89AE00E94861860E070E055
:100C100084E89AE00E948C18ED81FE8161917191C7
:100C2000FE83ED834AE050E084E89AE00E947B0C6A
:100C30002F8138852E5F3F4F38872F8322CF2C9608
:100C40000FB6F894DEBF0FBECDBFDF91CF911F91DD
:100C50000F91FF90EF90DF90CF90BF90AF909F905B
:100C60008F907F906F905F904F903F902F9008955E
:100C70008F929F92AF92BF92CF92DF92EF92FF92AC
:100C80000F931F93CF93DF93CDB7DEB765970FB662
:100C9000F894DEBF0FBECDBFE091800AF091810ACB
:100CA00080818E34A9F51092AD021092AC0282813F
:100CB000082E000C990BC0979093AF028093AE0260
:100CC00033963AE0219180ED820F8A3098F440917A
:100CD000AE025091AF02349FC001359F900D112498
:100CE000820F911D27FD9A95C0979093AF02809334
:100CF000AE02E8CF61E486E29BE00E94C90B10924D
:100D0000830A1092820AE091800AF091810A10828F
:100D1000A091800AB091810A8C91853409F042C07B
:100D20002091AC023091AD02F901EE0FFF1FE055AA
:100D3000FD4F1182108212968C911297082E000C92
:100D4000990BC0979183808313965AE04D9180ED63
:100D5000840F8A3078F460817181569FC001579F5B
:100D6000900D1124840F911D47FD9A95C097918392
:100D70008083ECCF2F5F3F4F3093AD022093AC02C6
:100D800086E29BE00E94120E61E486E29BE00E94F4
:100D9000C90B1092830A1092820AE091800AF091A6
:100DA000810A1082E091800AF091810A8081883561
:100DB00009F09DC06091AE027091AF0280EB92E0AD
:100DC0000E940B0561E486E29BE00E94C90B109231
:100DD000830A1092820AE091800AF091810A1082BF
:100DE0000E9459084B015C016091AE027091AF0204
:100DF00080EB92E00E94C0040E9459086B017C01C4
:100E000048EC50E060E070E084E89AE00E948018CE
:100E100060E070E084E89AE00E948C1862E084E868
:100E20009AE00E9486186BE072E084E89AE00E94E3
:100E3000B70BB601681979094AE0CE010F960E94F6
:100E40003E0D69E172E0CE0108960E94F00CBE01F1
:100E5000615F7F4FCE0101960E941D0DBE01685F4C
:100E60007F4FCE0101960E94990DBC01CE010F96D5
:100E70000E94060DCE0101960E94820CCE010896BA
:100E80000E94820CBE01615F7F4F84E89AE00E945D
:100E9000A50B84E89AE00E94910B67E272E084E877
:100EA0009AE00E94B70B80EBE82E82E0F82E00E07B
:100EB00010E08091AE029091AF02081719079CF4E0
:100EC000F701619171917F014AE050E084E89AE076
:100ED0000E947B0C6AE372E084E89AE00E94880B2F
:100EE0000F5F1F4FE6CFCE010F960E94820C6596D2
:100EF0000FB6F894DEBF0FBECDBFDF91CF911F912B
:100F00000F91FF90EF90DF90CF90BF90AF909F90A8
:100F10008F9008950E94A40840E855E260E070E0D8
:100F200086E29BE00E94411086E29BE00E94120E46
:100F300040E050E0BA0184E89AE00E94861A6FEF20
:100F40007FEF84E89AE00E944F1380E00E94060938
:100F50000C94BE0D0E948A0740E050E060E070E013
:100F600084E89AE00E94801860E070E084E89AE0EB
:100F70000E948C1863E084E89AE00E94861886E25A
:100F80009BE00E94F20D8837910569F06CE372E0F6
:100F900086E29BE00E94B70B64E670E080E090E0A0
:100FA0000E947E08ECCF64E472E086E29BE00E943F
:100FB000B70B86E29BE00E94C60D892BD1F386E237
:100FC0009BE00E94F20D8A3011F08D3039F40E94BE
:100FD000380686E29BE00E94120EEBCF2091820A37
:100FE0003091830A2F3F310520F74091800A5091BC
:100FF000810AFA01E20FF31F80838091820A9091A7
:10100000830A01969093830A8093820A2091800A32
:101010003091810AF901E80FF91F1082CACF1F929F
:101020000F920FB60F9211242F933F938F939F939C
:10103000AF93BF938091B80A9091B90AA091BA0A70
:10104000B091BB0A3091B70A23E0230F2D3720F46B
:101050000196A11DB11D05C026E8230F0296A11D12
:10106000B11D2093B70A8093B80A9093B90AA09350
:10107000BA0AB093BB0A8091BC0A9091BD0AA091B4
:10108000BE0AB091BF0A0196A11DB11D8093BC0A92
:101090009093BD0AA093BE0AB093BF0ABF91AF91CF
:1010A0009F918F913F912F910F900FBE0F901F90A6
:1010B00018953FB7F8948091BC0A9091BD0AA09111
:1010C000BE0AB091BF0A26B5A89B05C02F3F19F0F4
:1010D0000196A11DB11D3FBFBA2FA92F982F8827B8
:1010E000820F911DA11DB11DBC01CD0142E0660F13
:1010F000771F881F991F4A95D1F70895CF92DF92E5
:10110000EF92FF92CF93DF936B017C010E9459080D
:10111000EB01C114D104E104F10479F00E945908F3
:101120006C1B7D0B683E7340A0F381E0C81AD108A8
:10113000E108F108C851DC4FECCFDF91CF91FF906F
:10114000EF90DF90CF900895789484B5826084BD4D
:1011500084B5816084BD85B5826085BD85B58160BB
:1011600085BDEEE6F0E0808181608083E1E8F0E01B
:101170001082808182608083808181608083E0E84A
:10118000F0E0808181608083E1EBF0E08081846029
:101190008083E0EBF0E0808181608083E1E9F0E032
:1011A000808182608083808181608083E0E9F0E0DB
:1011B000808181608083E1EAF0E0808182608083C9
:1011C000808181608083E0EAF0E0808181608083BB
:1011D000E1E2F1E0808182608083808181608083B0
:1011E000E0E2F1E0808181608083EAE7F0E08081E5
:1011F000846080838081826080838081816080833D
:101200008081806880831092C1000895863308F041
:10121000865390917B00282F2870977F922B909374
:101220007B0087702091040290E4299F9001112493
:10123000822B80937C0080917A00806480937A0076
:1012400080917A0086FDFCCF809178002091790012
:1012500090E0922B089590E0FC013197E131F10587
:1012600008F04AC08827EE58FF4F8F4F0C945D243A
:10127000809180008F7703C0809180008F7D809364
:101280008000089584B58F7702C084B58F7D84BDBA
:1012900008958091B0008F7703C08091B0008F7D5A
:1012A0008093B0000895809190008F7707C080915F
:1012B00090008F7D03C080919000877F8093900085
:1012C00008958091A0008F7707C08091A0008F7D46
:1012D00003C08091A000877F8093A0000895809133
:1012E00020018F7707C0809120018F7D03C08091FE
:1012F0002001877F809320010895CF93DF9390E0B2
:10130000FC01EE55FD4F2491FC01E851FD4F849105
:10131000882361F190E0880F991FFC01E85BFC4F86
:10132000C591D491FC01E25DFC4FA591B49161118E
:1013300009C09FB7F8948881209582238883EC9117
:101340002E230BC0623061F49FB7F8943881822F4E
:10135000809583238883EC912E2B2C939FBF06C00E
:101360008FB7F894E8812E2B28838FBFDF91CF9120
:1013700008951F93CF93DF93282F30E0F901E45AAB
:10138000FD4F8491F901EE55FD4FD491F901E851DB
:10139000FD4FC491CC23C9F0162F81110E942B0957
:1013A000EC2FF0E0EE0FFF1FE25DFC4FA591B49132
:1013B0008FB7F894111105C09C91ED2FE095E923AA
:1013C00002C0EC91ED2BEC938FBFDF91CF911F9179
:1013D0000895CF93DF938230910510F482E090E07E
:1013E000E0916A0DF0916B0D20E030E0C0E0D0E0BC
:1013F000309711F14081518148175907C0F04817C3
:10140000590761F482819381209719F09B838A8325
:101410002BC090936B0D80936A0D26C0211531056A
:1014200019F04217530718F49A01BE01DF01EF01CA
:101430000280F381E02DDCCF2115310509F1281B55
:10144000390B2430310590F412968D919C911397AD
:101450006115710521F0FB019383828304C0909391
:101460006B0D80936A0DFD01329644C0FD01E20FC1
:10147000F31F81939193225031092D933C933AC0ED
:101480002091680D3091690D232B41F420910702C2
:10149000309108023093690D2093680D2091050268
:1014A000309106022115310541F42DB73EB7409128
:1014B000090250910A02241B350BE091680DF0914E
:1014C000690DE217F307A0F42E1B3F0B281739070D
:1014D00078F0AC014E5F5F4F2417350748F04E0F90
:1014E0005F1F5093690D4093680D8193919302C0E3
:1014F000E0E0F0E0CF01DF91CF9108950F931F93CB
:10150000CF93DF93009709F48CC0FC0132971382CC
:10151000128200916A0D10916B0D0115110581F475
:1015200020813181820F931F2091680D3091690DC8
:101530002817390779F5F093690DE093680D71C0AC
:10154000D80140E050E0AE17BF0750F412962D913D
:101550003C911397AD012115310509F1D901F3CF64
:101560009D01DA013383228360817181860F971F89
:101570008217930769F4EC0128813981260F371F00
:101580002E5F3F4F318320838A819B8193838283A7
:10159000452B29F4F0936B0DE0936A0D42C013962E
:1015A000FC93EE931297ED01499159919E01240FFE
:1015B000351FE217F30771F480819181840F951F25
:1015C000029611969C938E938281938113969C939D
:1015D0008E931297E0E0F0E0D80112968D919C91E5
:1015E0001397009719F0F8018C01F6CF8D919C911B
:1015F00098012E5F3F4F820F931F2091680D30910D
:10160000690D2817390769F4309729F410926B0D8A
:1016100010926A0D02C0138212821093690D00931A
:10162000680DDF91CF911F910F910895CF92DF92B6
:10163000EF92FF920F931F93CF93DF936C01EB0117
:101640007B01E40EF51E00E010E0CE15DF0561F031
:101650006991D601ED91FC910190F081E02DC601D8
:101660001995080F191FF1CFC801DF91CF911F9174
:101670000F91FF90EF90DF90CF9008956115710565
:1016800079F0FB0101900020E9F73197AF01461B8B
:10169000570BDC01ED91FC910280F381E02D199450
:1016A00080E090E00895AF92BF92CF92DF92EF92E8
:1016B000FF920F931F93CF93DF936C017B01C0E0E8
:1016C000D0E000E010E0D70114968D919C91159721
:1016D000C817D90788F4D601ED91FC91A080B1809C
:1016E000BE01C7010E94AC0D682FC601F501199516
:1016F000080F191F2196E7CFC801DF91CF911F91E5
:101700000F91FF90EF90DF90CF90BF90AF90089532
:101710000C943E0BDC01ED91FC910190F081E02DE9
:1017200019940F931F93CF93DF93EC016DE00E9408
:101730008A0B8C016AE0CE010E948A0B800F911FF8
:10174000DF91CF911F910F9108950F931F93CF9326
:10175000DF93EC010E94530B8C01CE010E94910B90
:10176000800F911FDF91CF911F910F9108950F93DB
:101770001F93CF93DF93EC010E943E0B8C01CE01AF
:101780000E94910B800F911FDF91CF911F910F91BC
:1017900008950F931F93CF93DF93EC010E948A0B60
:1017A0008C01CE010E94910B800F911FDF91CF9190
:1017B0001F910F9108958F929F92AF92BF92CF92F7
:1017C000DF92EF92FF920F931F93CF93DF93CDB7EA
:1017D000DEB7A1970FB6F894DEBF0FBECDBF6C0188
:1017E000142FE52FCB01022F19A2223008F40AE0B2
:1017F0007E0121E2E20EF11C802E912CA12CB12C55
:10180000612F7E2FA50194010E941C24029F1019B4
:10181000112481E0E81AF1081A3014F4105D01C0B7
:10182000195CF7011083122FE32FCA01232B242BFD
:10183000252B31F7B701C6010E943E0BA1960FB6CA
:10184000F894DEBF0FBECDBFDF91CF911F910F91F6
:10185000FF90EF90DF90CF90BF90AF909F908F90D0
:101860000895CF92DF92EF92FF920F931F93CF9341
:10187000DF93EC016A017B012115310579F4E881E0
:10188000F9810190F081E02D642FDF91CF911F91BC
:101890000F91FF90EF90DF90CF9019942A3031058F
:1018A000E9F477FF1AC06DE20E948A0B8C0144278D
:1018B0005527BA014C195D096E097F092AE0CE014E
:1018C0000E94DB0B800F911FDF91CF911F910F9131
:1018D000FF90EF90DF90CF9008952AE0B701A60126
:1018E000CE01DF91CF911F910F91FF90EF90DF908C
:1018F000CF900C94DB0B9A01AB01770F660B770B43
:101900000C94310CFC01808191810C947E0ACF9360
:10191000DF93EC0188819981009711F00E947E0A83
:10192000198218821D821C821B821A82DF91CF913C
:1019300008950F931F93CF93DF93EC018B016F5F9B
:101940007F4F888199810E94AA1E009731F0998368
:1019500088831B830A8381E001C080E0DF91CF91FF
:101960001F910F910895CF93DF93EC0188819981A6
:10197000892B29F08A819B818617970760F4CE0115
:101980000E94990C882341F08C819D81892B19F448
:10199000E881F981108281E0DF91CF910895EF9283
:1019A000FF920F931F93CF93DF93EC017B018A018A
:1019B000BA010E94B30C811104C0CE010E94870CB1
:1019C00007C01D830C83B701888199810E942C2058
:1019D000CE01DF91CF911F910F91FF90EF9008956D
:1019E000FC011182108213821282158214821682E7
:1019F0006115710551F0FB0101900020E9F7319765
:101A0000AF01461B570B0C94CF0C0895CF93DF9377
:101A1000EC01FB018617970761F060817181611508
:101A2000710529F0448155810E94CF0C02C00E94AB
:101A3000870CCE01DF91CF910895FC0111821082B5
:101A4000138212821582148216820C94060DCF9393
:101A5000DF93EC016115710559F0FB010190002045
:101A6000E9F73197AF01461B570B0E94CF0C02C01C
:101A70000E94870CCE01DF91CF9108950F931F93A1
:101A8000CF93DF93CDB7DEB762970FB6F894DEBF82
:101A90000FBECDBF8C01CB01F801118210821382E1
:101AA000128215821482168250E0BE016F5F7F4F52
:101AB0000E943320BE016F5F7F4FC8010E94270D37
:101AC00062960FB6F894DEBF0FBECDBFDF91CF9107
:101AD0001F910F910895EF92FF920F931F93CF9351
:101AE000DF93FC01248135816115710511F480E0DB
:101AF00019C041155105A9F07B01EC018A01020FC3
:101B0000131FB8010E94B30C882389F328813981FF
:101B10008C819D81B701820F931F0E942C201D8311
:101B20000C8381E0DF91CF911F910F91FF90EF9097
:101B30000895CF93DF93EC01FB01448155816081CF
:101B400071810E946B0D811103C0CE010E94870C30
:101B5000CE01DF91CF910895FC0124813581621778
:101B6000730748F480819181009729F0FC01E60F0A
:101B7000F71F8081089580E008950895009729F067
:101B8000BC0180E090E00C9417200895FC012485AE
:101B90003585F901E05CFF4F80819181329620818B
:101BA0003181821B930B8F7399270895DC011C965A
:101BB000ED91FC911D97DF01A05CBF4F2D913C91F1
:101BC000119712968D919C9111972817390739F02A
:101BD0008D919C91E80FF91F808190E008958FEF1F
:101BE0009FEF0895FC01A485B585FD01E05CFF4FE2
:101BF000208131813296808191812817390779F0CF
:101C000080819181A80FB91F8C91208131812F5F34
:101C10003F4F2F7333273183208390E008958FEF58
:101C20009FEF0895FC0181A1882329F0A489B5893B
:101C30008C9186FFFBCF11A208950F931F93CF9332
:101C4000DF93FC01A685B7858D01005C1F4FE8017D
:101C50008881998101968F739927AD014E5B5F4F03
:101C6000EA012881398182179307D1F3E80128819D
:101C70003981A20FB31F6C93A685B785A05CBF4FB7
:101C800011969C938E93A689B7892C9181E090E060
:101C9000078C02C0880F991F0A94E2F7822B8C935D
:101CA00081E081A30488F589E02D808180648083B0
:101CB00081E090E0DF91CF911F910F910895FB019A
:101CC000E05CFF4F208131812F5F3F4F2F7333271F
:101CD000DB01AE5BBF4F4D915C912417350741F09E
:101CE00040815181DB01A40FB51F8C933183208388
:101CF00008951F920F920FB60F9211240BB60F92F8
:101D00002F933F934F935F936F937F938F939F9303
:101D1000AF93BF93EF93FF938091C00082FD07C004
:101D20008091C60064E27DE00E945F0E02C0809157
:101D3000C600FF91EF91BF91AF919F918F917F91DD
:101D40006F915F914F913F912F910F900BBE0F902C
:101D50000FBE0F901F9018951F920F920FB60F9203
:101D600011240BB60F922F933F934F935F936F9372
:101D70007F938F939F93AF93BF93EF93FF93809144
:101D8000C80082FD07C08091CE006CE97CE00E9413
:101D90005F0E02C08091CE00FF91EF91BF91AF9195
:101DA0009F918F917F916F915F914F913F912F9173
:101DB0000F900BBE0F900FBE0F901F9018951F92A3
:101DC0000F920FB60F9211240BB60F922F933F93E1
:101DD0004F935F936F937F938F939F93AF93BF9333
:101DE000EF93FF938091D00082FD07C08091D600D1
:101DF00064E17CE00E945F0E02C08091D600FF91FA
:101E0000EF91BF91AF919F918F917F916F915F9172
:101E10004F913F912F910F900BBE0F900FBE0F90DF
:101E20001F9018951F920F920FB60F9211240BB6A8
:101E30000F922F933F934F935F936F937F938F9363
:101E40009F93AF93BF93EF93FF938091300182FDF7
:101E500007C0809136016CE87BE00E945F0E02C0F3
:101E600080913601FF91EF91BF91AF919F918F913A
:101E70007F916F915F914F913F912F910F900BBE8A
:101E80000F900FBE0F901F9018951F920F920FB6D4
:101E90000F9211240BB60F922F933F938F939F9322
:101EA000EF93FF932091200D3091210D8091220D11
:101EB0009091230D2817390731F48091C1008F7D4F
:101EC0008093C10014C0E091220DF091230DE052E7
:101ED000F34F20818091220D9091230D01968F73F5
:101EE00099279093230D8093220D2093C600FF9194
:101EF000EF919F918F913F912F910F900BBE0F907B
:101F00000FBE0F901F9018951F920F920FB60F9251
:101F100011240BB60F922F933F938F939F93EF93C0
:101F2000FF932091980C3091990C80919A0C90918C
:101F30009B0C2817390731F48091C9008F7D80935D
:101F4000C90014C0E0919A0CF0919B0CE85AF34F31
:101F5000208180919A0C90919B0C01968F73992708
:101F600090939B0C80939A0C2093CE00FF91EF915D
:101F70009F918F913F912F910F900BBE0F900FBEAD
:101F80000F901F9018951F920F920FB60F92112469
:101F90000BB60F922F933F938F939F93EF93FF93E3
:101FA0002091100C3091110C8091120C9091130C17
:101FB0002817390731F48091D1008F7D8093D100AB
:101FC00014C0E091120CF091130CE053F44F2081F7
:101FD0008091120C9091130C01968F739927909316
:101FE000130C8093120C2093D600FF91EF919F91D8
:101FF0008F913F912F910F900BBE0F900FBE0F90BE
:102000001F9018951F920F920FB60F9211240BB6C6
:102010000F922F933F938F939F93EF93FF93209172
:10202000880B3091890B80918A0B90918B0B28172C
:10203000390731F4809131018F7D8093310114C0D3
:10204000E0918A0BF0918B0BE85BF44F208180913B
:102050008A0B90918B0B01968F73992790938B0B22
:1020600080938A0B20933601FF91EF919F918F917E
:102070003F912F910F900BBE0F900FBE0F901F90AE
:102080001895CF92DF92EF92FF920F931F93CF9309
:10209000DF93EC016A017B014115514E6105710529
:1020A00009F1EC89FD8981E090E008A002C0880F69
:1020B000991F0A94E2F7808360E079E08DE390E075
:1020C000A70196010E941C2489019A01015011095F
:1020D000210931093695279517950795980101151E
:1020E0001041A8F0EC89FD89108260E874E88EE167
:1020F00090E0A70196010E941C24DA01C901019712
:10210000A109B109B695A795979587959C01E8898E
:10211000F9893083EA89FB89208319A2EE89FF8936
:10212000408181E090E09C010C8C02C0220F331FA3
:102130000A94E2F7242B2083EE89FF8940819C01D9
:102140000D8C02C0220F331F0A94E2F7242B208348
:10215000EE89FF8940819C010E8C02C0220F331F43
:102160000A94E2F7242B2083EE89FF8920810F8CCB
:1021700002C0880F991F0A94E2F78095822380831A
:10218000DF91CF911F910F91FF90EF90DF90CF9053
:102190000895CF92DF92EF92FF92E6E2FBE0138286
:1021A000128288EEC82E83E0D82EE12CF12CC48256
:1021B000D582E682F7826FE472E07183608384E205
:1021C0009DE09587848780EE9CE09787868785ECE5
:1021D00090E0918B808B84EC90E0938B828B80ECF1
:1021E00090E0958B848B81EC90E0978B868B82ECD2
:1021F00090E0918F808F86EC90E0938F828F44E007
:10220000448F33E0358F27E0268F95E0978F81E06C
:1022100080A3E4E0FBE013821282C482D582E682CE
:10222000F78271836083ACE9BCE0B587A487A8E539
:10223000BCE0B787A687ADECB0E0B18BA08BACEC6F
:10224000B0E0B38BA28BA8ECB0E0B58BA48BA9EC6B
:10225000B0E0B78BA68BAAECB0E0B18FA08FAEEC4C
:10226000B0E0B38FA28F448F358F268F978F80A3D6
:10227000E2EEFAE013821282C482D582E682F7820D
:1022800071836083A4E1BCE0B587A487A0EDBBE0C7
:10229000B787A687A5EDB0E0B18BA08BA4EDB0E029
:1022A000B38BA28BA0EDB0E0B58BA48BA1EDB0E019
:1022B000B78BA68BA2EDB0E0B18FA08FA6EDB0E0FA
:1022C000B38FA28F448F358F268F978F80A3E0EC3A
:1022D000FAE013821282C482D582E682F782718389
:1022E00060836CE87BE07587648768E47BE07787D0
:1022F000668765E371E0718B608B64E371E0738BDB
:10230000628B60E371E0758B648B61E371E0778BC6
:10231000668B62E371E0718F608F66E371E0738FAB
:10232000628F448F358F268F978F80A3FF90EF9019
:10233000DF90CF9008952F923F924F925F926F92CD
:102340007F928F929F92AF92BF92CF92DF92EF9245
:10235000FF920F931F93CF93DF9300D0CDB7DEB7DB
:102360004C017B836A836A01590117019801241B80
:10237000350B37FF03C0319521953109C5014A81DD
:102380005B81841B950B97FF03C091958195910903
:1023900051E059838217930714F019820BC09A2DCC
:1023A0008B2D5801092F182F9A818B81DB82CA82CD
:1023B000C92ED82E8A819B81A816B9065CF49C2D63
:1023C0008D2D6801092F182F9A818B81BB82AA82DB
:1023D000A92EB82E2501AA81BB814A1A5B0A3801B1
:1023E0006C187D0877FE03C07194619471087201C6
:1023F00057FE03C0BFEFEB1AFB0AF594E794C01633
:10240000D1061CF00FEF1FEF1FC001E010E01CC051
:10241000D401ED91FC91B9810084F185E02D910109
:10242000BB23C1F04A815B81B601C4011995E6184E
:10243000F708F7FE04C0C00ED11EE40CF51CEA81BB
:10244000FB813196FB83EA834A815B81A416B50642
:10245000FCF604C0A6016A817B81E7CF0F900F9044
:102460000F90DF91CF911F910F91FF90EF90DF9030
:10247000CF90BF90AF909F908F907F906F905F9024
:102480004F903F902F9008950895DC01ED91FC91BD
:102490000480F581E02D19940F931F93DC01ED91D9
:1024A000FC91008CF18DE02D19951F910F910895ED
:1024B0000F931F93DC01ED91FC91028CF38DE02DC5
:1024C00019951F910F910895EF92FF920F931F930B
:1024D000DC01ED91FC91048CF58DE02D19951F9197
:1024E0000F91FF90EF9008950895AF92BF92CF9211
:1024F000DF92EF92FF920F931F93CF93DF9300D061
:102500001F92CDB7DEB75C016901DC01ED91FC9152
:102510000680F781E02D4B835C8369837A8319956C
:10252000D501ED91FC914B815C81C40ED51EB1E0CB
:10253000CB1AD1080088F189E02D780186016981E4
:102540007A819B01C5011995D501ED91FC91028815
:10255000F389E02DC5010F900F900F900F90DF9140
:10256000CF911F910F91FF90EF90DF90CF90BF9090
:10257000AF901994AF92BF92CF92DF92EF92FF92F9
:102580000F931F93CF93DF9300D01F92CDB7DEB789
:102590005C016901DC01ED91FC910680F781E02D81
:1025A0004B835C8369837A831995D501ED91FC9106
:1025B00069817A819B012C0D3D1D215031090088D4
:1025C000F189E02D78014B815C818A01C501199563
:1025D000D501ED91FC910288F389E02DC5010F90A2
:1025E0000F900F900F90DF91CF911F910F91FF905F
:1025F000EF90DF90CF90BF90AF9019944F925F9281
:102600006F927F928F929F92AF92BF92CF92DF9202
:10261000EF92FF920F931F93CF93DF931F921F921E
:10262000CDB7DEB76C015A0139014801DC01ED91EB
:10263000FC910680F781E02D69837A831995698181
:10264000462E7A81572E640C751CD601ED91FC91B3
:10265000461457046CF40484F585E02D8701940139
:10266000A501B201C6011995BFEF4B1A5B0AEDCF68
:102670000288F389E02DC6010F900F90DF91CF9172
:102680001F910F91FF90EF90DF90CF90BF90AF9090
:102690009F908F907F906F905F904F901994EF92E2
:1026A000FF920F931F93DC01ED91FC9111971A9605
:1026B0000D911C911B9718962D913C911997048CA4
:1026C000F58DE02D7B0140E050E060E070E0199571
:1026D0001F910F91FF90EF900895CF92DF92EF92AC
:1026E000FF920F931F93CF93DF9300D000D0CDB70D
:1026F000DEB76C01DC01ED91FC916217730789F480
:10270000041715072CF4942F852FA801092F182FD3
:10271000041B150B98012F5F3F4F008CF18DE02DAE
:1027200012C04017510709F5261737072CF4962FCA
:10273000872FB901292F382F261B370B2F5F3F4FCB
:10274000028CF38DE02D8701C601199526960FB6F0
:10275000F894DEBF0FBECDBFDF91CF911F910F91D7
:10276000FF90EF90DF90CF9008950680F781E02DE5
:102770002D833E834B835C8369837A831995D601CD
:10278000ED91FC910088F189E02D2D813E814B81F6
:102790005C8169817A81C6011995D601ED91FC9120
:1027A0000288F389E02DC60126960FB6F894DEBFA5
:1027B0000FBECDBFDF91CF911F910F91FF90EF9092
:1027C000DF90CF9019946F927F928F929F92AF92E9
:1027D000BF92CF92DF92EF92FF920F931F93CF930E
:1027E000DF93EC014B015A0169013801E881F9815D
:1027F0000680F781E02D1995E881F9810684F78537
:10280000E02D87019601A501B401CE011995E8815B
:10281000F981A501460D571D415051090684F785E0
:10282000E02D9601B401CE011995E881F981048467
:10283000F585E02D9301A501B401CE011995E8813C
:10284000F981C80CD91CB601615071090484F58561
:10285000E02D9301A501CE011995E881F981028847
:10286000F389E02DCE01DF91CF911F910F91FF9061
:10287000EF90DF90CF90BF90AF909F908F907F9020
:102880006F9019940895FC016370658B8481958124
:1028900026813781613039F0633029F09187808754
:1028A0003387228708953187208793878287089509
:1028B000FC01138212828FE592E0918380837583FD
:1028C0006483578346837187608753874287158A5D
:1028D000158614861786168681E0848B2FEF3FEFCE
:1028E000338B228B318B208B868B178A118E108E27
:1028F00008952F923F924F925F926F927F928F92A4
:102900009F92AF92BF92CF92DF92EF92FF920F937E
:102910001F93CF93DF93CDB7DEB728970FB6F89408
:10292000DEBF0FBECDBF5C013B014A0138872F835C
:10293000FC82EB8281E090E02C01421A530AC9012B
:102940009195819591099C01220F331F3A83298328
:10295000170133E0230E311CEE24E394F12C802F79
:1029600081708D8302700E83C7010197EF81F88516
:102970008E179F070CF078C057FC0CC0AF81B8854C
:102980001197B887AF83E981FA813296FA83E98398
:102990004E0E5F1EC701880F991F0196480E591EE3
:1029A000FD81FF2359F1D501ED91FC912F813885EF
:1029B000220F331F2F5F3F4F8B819C81280F391FC0
:1029C0000484F585E02D8601A401AF81B8854A1BFA
:1029D0005B0BB701660D771DC5011995D501ED910A
:1029E000FC910484F585E02D9101A4014E195F0945
:1029F0006F817885660D771DC5011995BE81BB2352
:102A000061F1D501ED91FC912F813885220F331FA3
:102A10002F5F3F4F8B819C81280F391F0484F585E0
:102A2000E02D8601A401AF81B8854A1B5B0BB30181
:102A30006E197F09C5011995D501ED91FC910484AA
:102A4000F585E02D9101A4014E195F09B3018F8135
:102A50009885681B790BC50119959FEFE91AF90A4A
:102A6000A2E02A0E311C80CF28960FB6F894DEBF64
:102A70000FBECDBFDF91CF911F910F91FF90EF90CF
:102A8000DF90CF90BF90AF909F908F907F906F908E
:102A90005F904F903F902F9008956F927F928F920A
:102AA0009F92AF92BF92CF92DF92EF92FF920F93DD
:102AB0001F93CF93DF93EC014B013A015901680159
:102AC000E881F9810680F781E02D1995E881F98187
:102AD0009501220F331F2F5F3F4FA3014A195B0956
:102AE0000484F585E02DB401CE011995E12CF12C7B
:102AF00003E09501A301B401CE010E947914E8819D
:102B0000F9810288F389E02DCE01DF91CF911F91E9
:102B10000F91FF90EF90DF90CF90BF90AF909F907C
:102B20008F907F906F9019942F923F924F925F9267
:102B30006F927F928F929F92AF92BF92CF92DF92CD
:102B4000EF92FF920F931F93CF93DF93CDB7DEB732
:102B50006C970FB6F894DEBF0FBECDBF9C8F8B8FE6
:102B60005B011A011F830E833701C982DC0158966D
:102B70004D915C9159974115510509F0E5C01896A2
:102B80008D919C911997681779070CF0CAC11A9614
:102B90008D919C911B97281639060CF0C2C18C2C84
:102BA000912CFB0136E0C39EE00DF11D1124FB8743
:102BB000EA871E161F060CF0B4C1C40133E0880F6B
:102BC000991F3A95E1F79D878C87820D931D181602
:102BD00019060CF0A6C157968C91811103C0203BB9
:102BE00008F02F5FAB8DBC8DED91FC9111970680A5
:102BF000F781E02DCD012A8F19952A8DB5E02B9F05
:102C000090011124F5013596FF87EE872501BB82DF
:102C1000AA82A9014A195B09598B488BC101089600
:102C20009B8B8A8BE889F989E40DF51DEE59FC4FE1
:102C3000949198873D822C826101A885A0FF13C0E2
:102C4000AB8DBC8DED91FC91B981B13031F4008434
:102C5000F185E02D2E813F8116C00284F385E02DA1
:102C6000EE80FF801AC0EE81FF816E167F06F1F0C4
:102C7000AB8DBC8DED91FC91B981B13051F40084E4
:102C8000F185E02D9301A601B2018B8D9C8D1995E4
:102C90000DC00284F385E02D7301840194014C8101
:102CA0005D816A817B818B8D9C8D1995E885E69588
:102CB000E8872C813D81280D391D3D832C833FEF12
:102CC000C31AD30A4A895B89C416D50609F0B5CF61
:102CD0008A819B81880D991D9B838A839FEF491A66
:102CE000590AAE85BF854A165B0609F09BCFEE8177
:102CF000FF816E167F0609F4F2C0EB8DFC8DA0817A
:102D0000B181F981F13079F4B5016B5F7F4F1C9689
:102D1000ED91FC911D97830128E030E0A1018B8D9E
:102D20009C8D1995DCC06A857B85681979091A968E
:102D3000ED91FC911B9773010C851D859401A101F8
:102D40008B8D9C8D1995CBC0FA0134969491329756
:102D500065917491291BCB01B7E02B9F800D911DCC
:102D60001124FA01259134913B8B2A8BFC0145916A
:102D700054915B834A83FC013296C49031965491FE
:102D80005C87329614913196D4908981823058F0C4
:102D9000612E012E000C7708AD2D0D2C000CBB0B05
:102DA000B987A88704C019861886612C712CAB8D51
:102DB000BC8DED91FC9111970680F781E02DCD013E
:102DC0001995B9818B2E912C689CC001699C900D3E
:102DD000789C900D1124FC01EA0DFB1DF98BE88B0A
:102DE0001C82712C612CE12F110FFF0B95012E0F0E
:102DF0003F1F3B872A87AC0CB11CA5014E0F5F1FFC
:102E00005F8B4E8BC1018D0D911DD7FC9A95998FCB
:102E1000888F4C85641608F062C0862D90E0488546
:102E20005985480F591F489D9001499D300D589D67
:102E3000300D1124D901A20DB31DBF87AE87AA841E
:102E4000BB8448885988DC80BA85DB1AE88DF98D07
:102E5000E80FF91FFD8BEC8B8D2D8A0D2E893F8994
:102E6000A216B306B9F1877061F48A819B8101963D
:102E7000EA89FB89AA81BB81EA0FFB1F74909B83BF
:102E80008A8377FE20C0AB8DBC8DED91FC91B9811A
:102E9000B13061F40084F185E02D2E813F814C89B1
:102EA0005D89B5018B8D9C8D19950DC00284F385CC
:102EB000E02DEE80FF80840194014E855F85B20194
:102EC0008B8D9C8D1995770C480C591CEFEFAE1A21
:102ED000BE0AC2CF3C813C0D3C8363949ACFAB8D3C
:102EE000BC8DED91FC9111970288F389E02DCD0105
:102EF0006C960FB6F894DEBF0FBECDBFDF91CF91B9
:102F00001F910F91FF90EF90DF90CF90BF90AF9007
:102F10009F908F907F906F905F904F903F902F90F9
:102F200019946C960FB6F894DEBF0FBECDBFDF913B
:102F3000CF911F910F91FF90EF90DF90CF90BF90B6
:102F4000AF909F908F907F906F905F904F903F9049
:102F50002F900895AF92BF92CF92EF92FF920F936E
:102F60001F93CF93DF93EC01262F888D998D0097C7
:102F700009F040C06A3059F41D861C862C898E8564
:102F80009F8538E0239F800D911D112441C06D3035
:102F900009F4AAC08E898823C1F03C898C859D855F
:102FA00046E0349F800D911D1124488559854817AE
:102FB00059075CF41D861C868E859F8548E0349FEA
:102FC000800D911D11249F878E87EA88FB880889D0
:102FD00019894E855F856C857D85CC88CE010E94E0
:102FE00094152C898C859D8536E0239F800D911D3D
:102FF000112442C06A3079F41D861C862C89FC019C
:103000003696E4918E859F852E9F800D911D11240B
:103010009F878E8769C06D3009F466C0FC013496C5
:103020003491631708F460C03196E491E61708F410
:103030005BC0FC013296A590B490462F50E0431B34
:10304000510937E0349FB001359F700D1124A60E51
:10305000B71EF501329634913196E491332311F085
:10306000E1110DC0F5013496E4912C898C859D8584
:10307000E29F800D911D11249D878C8735C0F5013D
:10308000359644915E89552311F16C89E32FF0E068
:10309000E40FF11D47FDFA956E9FD0016F9FB00DB3
:1030A00011244C855D854A0F5B1FE885F985E4177F
:1030B000F5076CF41D861C86FC013696E4918E851E
:1030C0009F856E9F800D911D11249F878E87EA88B2
:1030D000FB88088919894E855F856C857D85CC883C
:1030E000CE010E949415BECF81E090E0DF91CF9198
:1030F0001F910F91FF90EF90CF90BF90AF900895E8
:10310000FC0175876487578746870895611101C060
:1031100061E0FC01648B0895FC01738B628B718B01
:10312000608B0895DC019C96ED91FC919D979081B8
:10313000D1968C91892B80830895EF92FF920F9303
:103140001F93DC01ED91FC910284F385E02D780161
:10315000890121E030E019951F910F91FF90EF90C8
:103160000895EF92FF920F931F93DC01ED91FC9174
:103170000284F385E02D780101E010E019951F919C
:103180000F91FF90EF9008950F931F93CF93DF93CC
:1031900000D000D0CDB7DEB78C01DC01ED91FC9101
:1031A0000680F781E02D2D833E834B835C8369830A
:1031B0007A831995D801ED91FC910084F185E02D79
:1031C0002D813E814B815C8169817A81C80119958D
:1031D000D801ED91FC910288F389E02DC801269673
:1031E0000FB6F894DEBF0FBECDBFDF91CF911F9118
:1031F0000F911994EF92FF920F931F93CF93DF9348
:1032000000D000D0CDB7DEB77C01DC01ED91FC91A0
:103210000680F781E02D2D833E834B835C83698399
:103220007A831995D701ED91FC910484F585E02D01
:103230002D813E814B815C8169817A81C70119951D
:10324000D701ED91FC910288F389E02DC701269604
:103250000FB6F894DEBF0FBECDBFDF91CF911F91A7
:103260000F91FF90EF901994EF92FF920F931F939D
:10327000CF93DF9300D000D0CDB7DEB77C01DC0167
:10328000ED91FC910680F781E02D2D833E834B83E9
:103290005C8369837A831995D701ED91FC9106844B
:1032A000F785E02D2D813E814B815C8169817A819A
:1032B000C7011995D701ED91FC910288F389E02DA2
:1032C000C70126960FB6F894DEBF0FBECDBFDF91C3
:1032D000CF911F910F91FF90EF901994CF92DF92B1
:1032E000EF92FF920F931F93CF93DF9300D000D004
:1032F000CDB7DEB76C01DC01ED91FC910680F78162
:10330000E02D2D833E834B835C8369837A831995FB
:10331000D601ED91FC910284F385E02D2D813E8153
:103320004B815C8169817A81C6011995D601ED9145
:10333000FC910288F389E02DC60126960FB6F89419
:10334000DEBF0FBECDBFDF91CF911F910F91FF90D8
:10335000EF90DF90CF901994CF93DF93EC0189A188
:1033600087FF09C084E00E94B71F81E00E94A91F67
:1033700080E00E94B21FECA5FDA5908189A98095EF
:1033800089238083DF91CF910895EF92FF920F936D
:103390001F93CF93DF931F92CDB7DEB77C01062F2B
:1033A000142F40E451E060EF70E029830E9458142C
:1033B00087E892E0D70111969C938E935E960C93CA
:1033C0005E975F961C935F97298190962C939097B8
:1033D0008FEF91968C93919792968C939297939668
:1033E0008C939397F701128E138E148E158E602F87
:1033F000000F770BFB01E851FD4F8491E82FF0E0BF
:10340000EE0FFF1FE25DFC4F859194919D969C937A
:103410008E939C97FB01EE55FD4FE491D196EC9372
:10342000D197412F110F550BFA01E851FD4FE4914F
:10343000F0E0EE0FFF1FE25DFC4F85919491F701E4
:1034400093A782A7FA01EE55FD4FE491D296EC9333
:10345000D29799961C921E929897D0961C92D097CC
:1034600095961C921E9294979E961C929E97979664
:103470001C921E9296979F961C920F90DF91CF916F
:103480001F910F91FF90EF900895FC0181A187FF9C
:1034900005C06EBD0DB407FEFDCF089528E030E0F5
:1034A00090E8A4A1B5A186A5492F462319F04C9117
:1034B000842B03C04C91809584238C93A0A5B1A547
:1034C0004C9180A9809584238C93A0A5B1A54C91A3
:1034D00080A9842B8C9396952150310911F708957A
:1034E000CF93DF93EC01EAA5FBA590818AA9809593
:1034F00089238083CE010E94451AEAA5FBA590810D
:103500008AA9892B8083DF91CF910895CF93DF9390
:10351000EC01411551056105710521F440E052E1CE
:103520006AE770E04A8F5B8F6C8F7D8F61E08F8DD3
:103530000E947D0960E08F8D0E94B90961E08E8D47
:103540000E947D0961E08E8D0E94B90989A187FDE5
:1035500016C061E08AA10E947D0960E08AA10E94F4
:10356000B90961E089A10E947D0961E089A10E94F9
:10357000B9098BA187FD03C060E00E947D0989A184
:1035800087FD0E94931F88A187FD21C061E00E94F2
:103590007D0961E088A10E94B90964E670E080E0DD
:1035A00090E00E947E0860E088A10E94B90964E66C
:1035B00070E080E090E00E947E0861E088A10E94B7
:1035C000B90968EC70E080E090E00E947E08E88134
:1035D000F9810680F781E02DCE0119956FEECE01BD
:1035E0000E94701A63E0CE010E94451A60E8CE0185
:1035F0000E94451A62E0CE010E94451A6FECCE018E
:103600000E94701A60E0CE010E94451A61ECCE0162
:103610000E94451A60E3CE010E94451A6DEECE016C
:103620000E94701A64E6CE010E94451A63E0CE0142
:103630000E94451A62E1CE010E94451A61E8CE015E
:103640000E94451A68EECE010E94701A65E8CE010C
:103650000E94451A60E0CE010E94451A68E7CE013B
:103660000E94451A6BECCE010E94701A69E3CE01EC
:103670000E94451A6CE2CE010E94451A60E0CE011C
:103680000E94451A64E3CE010E94451A62E0CE0111
:103690000E94451A67EFCE010E94701A60E2CE01C7
:1036A0000E94451A6AEECE010E94701A60E0CE01B7
:1036B0000E94451A60E0CE010E94451A60ECCE01DE
:1036C0000E94701A63E2CE010E94451A61ECCE019D
:1036D0000E94701A60E1CE010E94451A65ECCE018D
:1036E0000E94701A6EE3CE010E94451A68E2CE0174
:1036F0000E94451A67ECCE010E94701A66E8CE015E
:103700000E94451A66E3CE010E94701A68E4CE0159
:103710000E94451A67E3CE010E94701A89A187FFB3
:1037200009C01EBC0DB407FEFDCF1EBC0DB407FEC4
:10373000FDCF08C060E0CE010E94451A60E0CE01D6
:103740000E94451A6AE3CE010E94701A65E5CE0117
:103750000E94451A61EBCE010E94701A60E0CE0112
:103760000E94451A68E1CE010E94451A66EBCE011F
:103770000E94701A68E0CE010E94451A62E8CE01EC
:103780000E94451A67E2CE010E94451A62EFCE01FF
:103790000E94701A60E0CE010E94451A66E2CE01D6
:1037A0000E94701A61E0CE010E94451A60EECE01BF
:1037B0000E94701A6FE0CE010E94451A61E3CE01AB
:1037C0000E94451A6BE2CE010E94451A6CE0CE01C0
:1037D0000E94451A6EE0CE010E94451A68E0CE01B3
:1037E0000E94451A6EE4CE010E94451A61EFCE0197
:1037F0000E94451A67E3CE010E94451A67E0CE0198
:103800000E94451A60E1CE010E94451A63E0CE0194
:103810000E94451A6EE0CE010E94451A69E0CE0171
:103820000E94451A60E0CE010E94451A61EECE0169
:103830000E94701A60E0CE010E94451A6EE0CE012F
:103840000E94451A64E1CE010E94451A63E0CE0150
:103850000E94451A61E1CE010E94451A67E0CE013F
:103860000E94451A61E3CE010E94451A61ECCE0127
:103870000E94451A68E4CE010E94451A68E0CE0114
:103880000E94451A6FE0CE010E94451A6CE0CE01FD
:103890000E94451A61E3CE010E94451A66E3CE01FB
:1038A0000E94451A6FE0CE010E94451A61E1CE01E7
:1038B0000E94701A68E770E080E090E00E947E0845
:1038C00069E2CE010E94701A68E770E080E090E043
:1038D0000E947E08E881F9810288F389E02DCE01FB
:1038E000199580EF90E09987888780E491E09B8725
:1038F0008A87DF91CF9108951F93CF93DF93EC01D7
:1039000063706D8B6230C1F0633001F1613051F052
:1039100080EF90E09987888780E491E09B878A8791
:1039200018E41DC080E491E09987888780EF90E0DB
:103930009B878A8718E213C080EF90E09987888779
:1039400080E491E09B878A8718E809C080E491E0D1
:103950009987888780EF90E09B878A8718EEE881B7
:10396000F9810680F781E02DCE01199566E3CE013D
:103970000E94701A612FCE010E94451AE881F981D8
:103980000288F389E02DCE01DF91CF911F91199428
:103990000F931F93CF93DF931F92CDB7DEB78C01A8
:1039A000DC01ED91FC910680F781E02D698319958A
:1039B0006981611102C060E201C061E2C8010E9438
:1039C000701AD801ED91FC910288F389E02DC801AD
:1039D0000F90DF91CF911F910F9119948F929F9229
:1039E000AF92BF92CF92DF92EF92FF920F931F930D
:1039F000CF93DF93EC01490181E0881A9108860E8C
:103A0000971EC401A0E0B0E04B01A12CB12C5401E1
:103A100099248824882A992AAA2ABB2A680181E045
:103A2000C81AD108C40ED51EC601A0E0B0E06A01D4
:103A3000E12CF12C7601DD24CC24C82AD92AEA2AEB
:103A4000FB2A6AE2CE010E94701A29A16B2D77270A
:103A50008827992727FF18C06EBD0DB407FEFDCF3C
:103A6000C501AA27BB278EBD0DB407FEFDCFBB271E
:103A7000AB2D9A2D892D8EBD0DB407FEFDCF8EBCCA
:103A80000DB407FEFDCF14C0CE010E94451AB5014A
:103A900088279927CE010E94451A99278B2D7A2DC8
:103AA000692DCE010E94451A682DCE010E94451A4B
:103AB0006BE2CE010E94701A29A16F2D772788270B
:103AC000992727FF18C06EBD0DB407FEFDCFC701B3
:103AD000AA27BB278EBD0DB407FEFDCFBB27AF2D98
:103AE0009E2D8D2D8EBD0DB407FEFDCFCEBC0DB429
:103AF00007FEFDCF14C0CE010E94451AB7018827EA
:103B00009927CE010E94451A99278F2D7E2D6D2D64
:103B1000CE010E94451A6C2DCE010E94451A6CE21E
:103B2000CE01DF91CF911F910F91FF90EF90DF9029
:103B3000CF90BF90AF909F908F900C94701A1F936E
:103B4000CF93DF93262FFC0131A137FF09C07EBD43
:103B50000DB407FEFDCF2EBD0DB407FEFDCF0CC08A
:103B6000672F122FEC010E94451A612FCE01DF91C1
:103B7000CF911F910C94451ADF91CF911F91089519
:103B8000EF92FF920F931F93CF93DF9377FD23C0A4
:103B9000DC011896ED91FC9119976E177F07DCF404
:103BA00057FD19C01A96ED91FC911B974E175F07B0
:103BB00094F47901EC0101E010E021E030E00E9492
:103BC000EE1CB701CE01DF91CF911F910F91FF90B5
:103BD000EF900C949F1DDF91CF911F910F91FF905B
:103BE000EF900895EF92FF921F93CF93DF9300D051
:103BF0001F921F92CDB7DEB77C01162FFC0181A169
:103C000087FF12C0211531054105510549F17EBDDF
:103C10000DB407FEFDCF1EBD0DB407FEFDCF215034
:103C2000310941095109EECF2115310541055105F1
:103C3000B9F0672FC70129833A834B835C837D8367
:103C40000E94451A612FC7010E94451A29813A81B5
:103C50004B815C8121503109410951097D81E4CFBB
:103C60000F900F900F900F900F90DF91CF911F91B9
:103C7000FF90EF9008958F929F92AF92BF92CF9254
:103C8000DF92EF92FF920F931F93CF93DF935C012C
:103C9000FB01E9014701DC0118962D913C91199730
:103CA000621773070CF049C01A968D919C911B976F
:103CB000481759070CF041C06B01CC0EDD1ED60130
:103CC00011977A01E00EF11EB70161507109B7FD3D
:103CD00034C077FD32C0F7FF03C0E601E0E0F0E05A
:103CE00057FF03C0870140E050E0A217B3071CF064
:103CF000E901CE1BDF0B681779071CF08C01041B50
:103D0000150B9E01D8010E9465246B017C01BF0147
:103D1000C5010E94EE1CA7019601B401C501DF9107
:103D2000CF911F910F91FF90EF90DF90CF90BF90B8
:103D3000AF909F908F900C94F21DDF91CF911F91C7
:103D40000F91FF90EF90DF90CF90BF90AF909F903A
:103D50008F9008956F927F928F929F92AF92BF92B1
:103D6000CF92DF92EF92FF920F931F93CF93DF9347
:103D7000EC01009789F4CB01DF91CF911F910F9156
:103D8000FF90EF90DF90CF90BF90AF909F908F907B
:103D90007F906F900C94E909FC01E60FF71F9C01DE
:103DA00022503109E217F30708F4ACC0D9010D9194
:103DB0001C91119706171707B0F00530110508F48C
:103DC0009FC0C80104978617970708F499C002504E
:103DD0001109061B170B019311936D937C93CF016F
:103DE0000E947E0A8DC05B01A01AB10A4C01800EB0
:103DF000911EA0916A0DB0916B0D40E050E0E12C56
:103E0000F12C109709F44AC0A815B905D1F56D90A9
:103E10007C901197630182E0C80ED11CCA14DB04A8
:103E200080F1A3014A195B096A0182E0C80ED11C26
:103E30001296BC9012971396AC91B5E0CB16D104B4
:103E400040F0B282A38351834083D9016D937C9368
:103E50000AC00E5F1F4FC301800F911FF9019183AC
:103E60008083EB2DFA2FE114F10431F0D701139682
:103E7000FC93EE93129744C0F0936B0DE0936A0DA0
:103E80003FC08D919C9111974817590708F4AC01D8
:103E90007D0112960D90BC91A02DB3CF8091680D3D
:103EA0009091690D88159905E1F446175707C8F4F4
:103EB0008091050290910602009741F48DB79EB75C
:103EC0004091090250910A02841B950BE817F907EB
:103ED000C8F4F093690DE093680DF9017183608374
:103EE0000FC0CB010E94E9097C01009759F0A8019D
:103EF000BE010E942320CE010E947E0AC70104C099
:103F0000CE0102C080E090E0DF91CF911F910F9130
:103F1000FF90EF90DF90CF90BF90AF909F908F90E9
:103F20007F906F90089561E085E30E94B90961E098
:103F300085E30E947D098CB580618CBD8CB5806461
:103F40008CBD61E084E30E947D0961E083E30C9411
:103F50007D09811103C08CB5806202C08CB58F7D54
:103F60008CBD08959CB5937F892B8CBD08959CB51D
:103F7000282F23709C7F922B9CBD2DB582FB992707
:103F800090F9822F8E7F892B8DBD08958F929F92FD
:103F9000AF92BF92CF92DF92EF92FF92CF93DF93D7
:103FA000EC01688179818A819B81611571058105A8
:103FB000910521F464E279ED8BE597E02DE133EF93
:103FC00041E050E00E943E2449015A019B01AC01AE
:103FD000A7EAB1E40E9483246B017C01ACEEB4EF4C
:103FE000A50194010E949124DC01CB018C0D9D1D43
:103FF000AE1DBF1DB7FF03C00197A109B04888835C
:104000009983AA83BB83BC01CD019F77DF91CF91B8
:10401000FF90EF90DF90CF90BF90AF909F908F90E8
:1040200008950C94C61F80E092E00C94C61F609324
:10403000000270930102809302029093030208959C
:10404000F8940C94AA24FB01DC0102C001900D92AB
:1040500041505040D8F70895FB01DC0101900D92CA
:104060000020E1F708954532510520F4423010F068
:104070000C943E20FB011082CB010895BB274A30EF
:1040800031F4992322F4BDE2909581959F4F0C94D1
:104090004A20BB27FB015527AA27880F991FAA1F73
:1040A000A41710F0A41B83955051B9F7A05DAA3353
:1040B00008F0A95DA193009779F7B111B19311921E
:1040C000CB010C94C3225058BB27AA270E947B2007
:1040D0000C94CC210E94BE2138F00E94C52120F012
:1040E00039F49F3F19F426F40C94BB210EF4E095AB
:1040F000E7FB0C94B521E92F0E94DD2158F3BA1794
:10410000620773078407950720F079F4A6F50C94ED
:10411000FF210EF4E0950B2EBA2FA02D0B01B90153
:1041200090010C01CA01A0011124FF27591B99F02D
:10413000593F50F4503E68F11A16F040A22F232F39
:10414000342F4427585FF3CF469537952795A79589
:10415000F0405395C9F77EF41F16BA0B620B730B30
:10416000840BBAF09150A1F0FF0FBB1F661F771FA1
:10417000881FC2F70EC0BA0F621F731F841F48F456
:10418000879577956795B795F7959E3F08F0B0CFDF
:104190009395880F08F09927EE0F979587950895C6
:1041A0000E94E4200C94CC210E94C52158F00E946A
:1041B000BE2140F029F45F3F29F00C94B521511144
:1041C0000C9400220C94BB210E94DD2168F39923FA
:1041D000B1F3552391F3951B550BBB27AA27621703
:1041E0007307840738F09F5F5F4F220F331F441F10
:1041F000AA1FA9F335D00E2E3AF0E0E832D0915044
:104200005040E695001CCAF72BD0FE2F29D0660F30
:10421000771F881FBB1F261737074807AB07B0E873
:1042200009F0BB0B802DBF01FF2793585F4F3AF079
:104230009E3F510578F00C94B5210C9400225F3F0D
:10424000E4F3983ED4F3869577956795B795F795FF
:104250009F5FC9F7880F911D9695879597F90895E7
:10426000E1E0660F771F881FBB1F62177307840783
:10427000BA0720F0621B730B840BBA0BEE1F88F792
:10428000E09508950E9449216894B1110C94002290
:1042900008950E94E52188F09F5798F0B92F99273B
:1042A000B751B0F0E1F0660F771F881F991F1AF021
:1042B000BA95C9F714C0B13091F00E94FF21B1E066
:1042C00008950C94FF21672F782F8827B85F39F065
:1042D000B93FCCF3869577956795B395D9F73EF4BA
:1042E00090958095709561957F4F8F4F9F4F089562
:1042F000E89409C097FB3EF4909580957095619580
:104300007F4F8F4F9F4F9923A9F0F92F96E9BB2735
:104310009395F695879577956795B795F111F8CFB1
:10432000FAF4BB0F11F460FF1BC06F5F7F4F8F4F1C
:104330009F4F16C0882311F096E911C0772321F012
:104340009EE8872F762F05C0662371F096E8862FAA
:1043500070E060E02AF09A95660F771F881FDAF701
:10436000880F9695879597F9089597F99F6780E844
:1043700070E060E008959FEF80EC089500240A94B7
:104380001616170618060906089500240A94121630
:104390001306140605060895092E0394000C11F463
:1043A000882352F0BB0F40F4BF2B11F460FF04C010
:1043B0006F5F7F4F8F4F9F4F089557FD9058440F69
:1043C000551F59F05F3F71F04795880F97FB991F74
:1043D00061F09F3F79F08795089512161306140631
:1043E000551FF2CF4695F1DF08C0161617061806BE
:1043F000991FF1CF86957105610508940895E89499
:10440000BB2766277727CB0197F908950E941922C9
:104410000C94CC210E94BE2138F00E94C52120F0CE
:10442000952311F00C94B5210C94BB2111240C940C
:1044300000220E94DD2170F3959FC1F3950F50E09B
:10444000551F629FF001729FBB27F00DB11D639F46
:10445000AA27F00DB11DAA1F649F6627B00DA11DEC
:10446000661F829F2227B00DA11D621F739FB00D92
:10447000A11D621F839FA00D611D221F749F332702
:10448000A00D611D231F849F600D211D822F762F9B
:104490006A2F11249F5750409AF0F1F088234AF078
:1044A000EE0FFF1FBB1F661F771F881F91505040E4
:1044B000A9F79E3F510580F00C94B5210C94002281
:1044C0005F3FE4F3983ED4F3869577956795B7956B
:1044D000F795E7959F5FC1F7FE2B880F911D969585
:1044E000879597F90895FA01EE0FFF1F3096210581
:1044F0003105A1F16115710561F48038BFE39B07B7
:1045000049F168949038810561F08038BFEF9B07CE
:1045100041F099234AF5FF3FE1053105210519F1E5
:10452000E8940894E795D901AA2329F4AB2FBE2F6C
:10453000F85FD0F310C0FF5F70F4A695E0F7F7398D
:1045400050F019F0FF3A38F49F779F930DD00F90F9
:1045500007FC9058089546F00C94BB2160E070E091
:1045600080E89FE308954FE79F775F934F933F93D2
:104570002F930E947E232F913F914F915F910E9434
:1045800006220C94DB22DC01FC01672F719177235A
:10459000E1F7329704C07C916D9370836291AE17FE
:1045A000BF07C8F3089529F416F00C94B5210C94B4
:1045B000FF210C94BB210E94E521A8F39638A0F7B7
:1045C00007F80F92E8942BE33AEA48EB5FE70E9482
:1045D0001C220F920F920F924DB75EB70F920E945E
:1045E000C623E6E0F1E00E940D234F915F91EF9129
:1045F000FF91E595EE1FFF1F49F0FE57E068442745
:10460000EE0F441FFA95E1F74195550B0E944023A8
:104610000F9007FE0C9434230895DF93CF931F93DC
:104620000F93FF92EF92DF927B018C01689406C09A
:10463000DA2EEF010E941922FE01E894A59125913E
:10464000359145915591A6F3EF010E947B20FE0123
:104650009701A801DA9469F7DF90EF90FF900F912E
:104660001F91CF91DF9108959B01AC0160E070E054
:1046700080E89FE30C94D0200C94B5210C94FA238D
:104680000E94E521D8F39923C9F3940F511DA3F398
:104690009150504094F059F0882332F0660F771F04
:1046A000881F91505040C1F79E3F51052CF7880F4D
:1046B000911D9695879597F908955F3FACF0983EC8
:1046C0009CF0BB27869577956795B79508F4B16000
:1046D0009395C1F7BB0F58F711F460FFE8CF6F5FF8
:1046E0007F4F8F4F9F4FE3CF0C94002216F00C9416
:1046F000FA230C94BB2168940C94B5210E94E52107
:10470000A8F39923C1F3AEF3DF93CF931F930F93D5
:10471000FF92C92FDD2788232AF02197660F771F84
:10472000881FDAF720E030E040E85FEB9FE388394C
:1047300020F0803E38F021968F770E946420EEE2D0
:10474000F1E004C00E946420EBE5F1E00E940D233B
:104750008B01BE01EC01FB2E6F5771097595771F18
:10476000880B990B0E947A2128E132E741E35FE34D
:104770000E941922AF2D9801AE01FF900F911F9159
:10478000CF91DF910E947B200C94CC21FA01DC01B7
:10479000AA0FBB1F9B01AC01BF5728F42227332768
:1047A0004427507820C0B75190F4AB2F0024469591
:1047B00037952795011CA395D2F3002071F0220FA5
:1047C000331F441FB395DAF30ED00C94632061308D
:1047D0007105A0E88A07B94630F49B01AC01662751
:1047E000772788279078309621F020833183428381
:1047F000538308959F3F31F0915020F4879577952A
:104800006795B795880F911D9695879597F90895A7
:1048100097FB072E16F4009407D077FD09D00E946D
:10482000962407FC05D03EF4909581959F4F0895FE
:10483000709561957F4F0895A1E21A2EAA1BBB1BAC
:10484000FD010DC0AA1FBB1FEE1FFF1FA217B3075C
:10485000E407F50720F0A21BB30BE40BF50B661F72
:10486000771F881F991F1A9469F760957095809536
:1048700090959B01AC01BD01CF010895052E97FBDA
:104880001EF400940E94552457FD07D00E941C245A
:1048900007FC03D04EF40C94552450954095309568
:1048A00021953F4F4F4F5F4F08959095809570959C
:1048B00061957F4F8F4F9F4F0895EE0FFF1F881F09
:1048C0008BBF0790F691E02D19940E946D2433233D
:1048D00012F48A1B9B0B0C947E24A29FB001B39F01
:1048E000C001A39F700D811D1124911DB29F700DF9
:1048F000811D1124911D08950E946D24B7FF089514
:10490000821B930B08950E946D24A59F900DB49F68
:10491000900DA49F800D911D11240895B7FF0C9454
:1049200083240E948324821B930B0895AA1BBB1B24
:1049300051E107C0AA1FBB1FA617B70710F0A61B9F
:10494000B70B881F991F5A95A9F780959095BC01C0
:08495000CD010895F894FFCF9A
:10495800010000000100006C0D8000536F72746943
:104968006E6720746F6F6B3A00206D6963726F73A6
:1049780065636F6E64730054686520736F72746545
:10498800642076616C7565733A0020005048415385
:10499800453031007468616E6B7300000000001DC3
:1049A8000E160BC60DF20DD60D120E00000000AA51
:1049B80017160BBD0D4412451264124C1258129B67
:1049C800117412431442147512BA12FE124F136D69
:1049D80013E31300000000AA17160BC418AC19C083
:1049E8001D3B1E9D18B1189B1192187C1CC81CFAFF
:0C49F8001834196E194F136D13E31300EF
:00000001FF
