:100000000C9433040C9464040C9464040C94640401
:100010000C9464040C9464040C9464040C946404C0
:100020000C9464040C9464040C9464040C946404B0
:100030000C9464040C9464040C9464040C946404A0
:100040000C9464040C9464040C9464040C94640490
:100050000C9464040C9464040C9464040C943606AC
:100060000C9464040C941E0B0C94EA0B0C94640422
:100070000C9464040C9464040C9464040C94640460
:100080000C9464040C9464040C9464040C94640450
:100090000C94510B0C94290C0C9464040C9464047F
:1000A0000C9464040C9464040C9464040C94640430
:1000B0000C9464040C9464040C9464040C94640420
:1000C0000C9464040C9464040C9464040C94840BE9
:1000D0000C94680C0C9464040C94B70B0C94A70C4F
:1000E0000C94640469076C075F076307A307700734
:1000F00074077A077E07820788078C079007A30793
:1001000096079A079E0707634236B79BD8A71A3906
:10011000685618AEBAAB558C1D3CB7CC5763BD6D55
:10012000EDFD753EF6177231BF000000803F0800FC
:100130000000BE922449123EABAAAA2ABECDCCCC66
:100140004C3E00000080BEABAAAAAA3E0000000000
:10015000BF000000803F0000000000084178D3BBD2
:100160004387D1133D190E3CC3BD4282AD2B3E687F
:10017000EC8276BED98FE1A93E4C80EFFFBE01C470
:10018000FF7F3F00000000000C946D190C94630782
:100190000C9451160C949A070C94D9150C94651A6A
:1001A0000C9482070C947B0A0C94190F0C94E710A2
:1001B0000C94E90E0C946C070C9474070C947A0759
:1001C0000C946B0A0C94620A0C94970A0C94F40F2A
:1001D0000C9437150C9412100C94EA0E0C945615CE
:1001E0000C949E070C94E8100C946E0D0C949607DA
:1001F0000C9413160C9469070C9469150C94FD0E5D
:100200000C94400E0C941A0F0C949F150C947E07BE
:100210000C9442150C94A3070C9488100C94B70A04
:100220000C94090F0C94E01A0C9470070C943D097F
:100230000C945F0F0C944F140C94F10E0C94A30FBC
:100240000C94C20A0C948C070C9488070C945F07DA
:100250000C94A1050C9421190C9490070000090A34
:1002600002080B0C0D07060304010000000000004B
:10027000000000000000000000000000000000007E
:10028000000000000000000011100F00000000003E
:10029000000000000000000000000000000000005E
:1002A000000001021020200808102040102040808B
:1002B000020102010804020101020408102040802A
:1002C00080402010080402018004020180402010B8
:1002D0000804020108040201010204081020408001
:1002E00001020408102040800505050507050808DF
:1002F0000808020202020A0A0808040404040101B0
:1003000001010101010103030303030303030407C4
:1003100007070C0C0C0C0C0C0C0C0202020206065B
:100320000606060606060B0B0B0B0B0B0B0B000051
:100330002200250028002B002E003100340002018D
:100340000000050108010B01000021002400270026
:100350002A002D00300033000101000004010701D4
:100360000A0100000000003E5B4F5B3E3E6B4F6B9E
:100370003E1C3E7C3E1C183C7E3C181C577D571C86
:100380001C5E7F5E1C00183C1800FFE7C3E7FF00FF
:1003900018241800FFE7DBE7FF30483A060E26294D
:1003A000792926407F050507407F05253F5A3CE710
:1003B0003C5A7F3E1C1C08081C1C3E7F14227F22D6
:1003C000145F5F005F5F06097F017F006689956AA1
:1003D000606060606094A2FFA29408047E0408102C
:1003E000207E201008082A1C08081C2A08081E1055
:1003F0001010100C1E0C1E0C30383E3830060E3E0D
:100400000E06000000000000005F0000000700076B
:1004100000147F147F14242A7F2A12231308646295
:1004200036495620500008070300001C22410000F6
:1004300041221C002A1C7F1C2A08083E0808008054
:1004400070300008080808080000606000201008EC
:1004500004023E5149453E00427F400072494949ED
:10046000462141494D331814127F1027454545391F
:100470003C4A494931412111090736494949364623
:100480004949291E00001400000040340000000803
:1004900014224114141414140041221408020159A6
:1004A00009063E415D594E7C1211127C7F49494933
:1004B000363E414141227F4141413E7F49494941C8
:1004C0007F090909013E414151737F0808087F00F7
:1004D000417F41002040413F017F081422417F407D
:1004E0004040407F021C027F7F0408107F3E414154
:1004F000413E7F090909063E4151215E7F091929C4
:1005000046264949493203017F01033F4040403FAD
:100510001F2040201F3F4038403F631408146303EE
:10052000047804036159494D43007F41414102046D
:10053000081020004141417F040201020440404074
:100540004040000307080020545478407F2844446A
:10055000383844444428384444287F385454541884
:1005600000087E090218A4A49C787F08040478007F
:10057000447D40002040403D007F10284400004161
:100580007F40007C047804787C0804047838444474
:100590004438FC1824241818242418FC7C0804046B
:1005A00008485454542404043F44243C4040207CD4
:1005B0001C2040201C3C4030403C44281028444C27
:1005C0009090907C4464544C4400083641000000F4
:1005D000770000004136080002010204023C262395
:1005E000263C1EA1A161123A4040207A385454554D
:1005F0005921555579412254547842215554784017
:1006000020545579400C1E5272123955555559399E
:100610005454545939555454580000457C410002F3
:10062000457D420001457C407D1211127DF0282558
:1006300028F07C545545002054547C547C0A097F92
:100640004932494949323A4444443A324A484830A6
:100650003A4141217A3A42402078009DA0A07D3D58
:100660004242423D3D4040403D3C24FF2424487EE0
:100670004943662B2FFC2F2BFF0929F620C0887ECB
:10068000090320545479410000447D413048484AD0
:1006900032384040227A007A0A0A727D0D19317D83
:1006A0002629292F28262929292630484D40203857
:1006B0000808080808080808382F10C8ACBA2F1016
:1006C0002834FA00007B000008142A142222142A7D
:1006D00014085500550055AA55AA55AAFF55FF55AF
:1006E000FF000000FF00101010FF00141414FF00A2
:1006F0001010FF00FF1010F010F0141414FC001480
:1007000014F700FF0000FF00FF1414F404FC14149D
:1007100017101F10101F101F1414141F001010109A
:10072000F0000000001F101010101F10101010F02B
:1007300010000000FF101010101010101010FF100B
:10074000000000FF140000FF00FF00001F10170052
:1007500000FC04F414141710171414F404F400002B
:10076000FF00F714141414141414F700F7141414DD
:10077000171410101F101F141414F4141010F0107C
:10078000F000001F101F0000001F14000000FC14E8
:100790000000F010F01010FF10FF141414FF1410DC
:1007A00010101F00000000F010FFFFFFFFFFF0F02F
:1007B000F0F0F0FFFFFF0000000000FFFF0F0F0F41
:1007C0000F0F3844443844FC4A4A4A347E02020639
:1007D00006027E027E0263554941633844443C046C
:1007E000407E201E2006027E020299A5E7A5991CE4
:1007F0002A492A1C4C7201724C304A4D4D30304807
:10080000784830BC625A463D3E494949007E010164
:10081000017E2A2A2A2A2A44445F444440514A44F9
:100820004040444A51400000FF0103E080FF0000C7
:1008300008086B6B083612362436060F090F0600BF
:100840000018180000001010003040FF0101001FC8
:1008500001011E00191D1712003C3C3C3C00000029
:100860000000A1056E0D11241FBECFEFD1E2DEBF47
:10087000CDBF00E00CBF12E0A0E0B2E0E0EEFFE38D
:1008800000E00BBF02C007900D92A038B107D9F766
:1008900025E0A0E8B2E001C01D92A437B207E1F75D
:1008A00014E0C3E3D4E000E006C021970109802FE3
:1008B000FE010E94B51FC133D10780E00807A9F7E8
:1008C0000E94D1050C94DC1B0C9400004F925F92A7
:1008D0006F927F92AF92BF92CF92DF92EF92FF9290
:1008E0000F931F93CF93DF93C0918502D09186021F
:1008F0005E0188E2A80EB11CBE010D2E000C880B13
:10090000990B0E94F61C9B01AC0160E070E080E056
:1009100090E40E94EF1D6B017C0180918302909115
:100920008402BC01990F880B990B0E94F61C2B01C5
:100930003C0120E030E040E85FE3C701B6010E94DF
:10094000E01B9B01AC0160E070E080E793E40E9453
:100950004C1C9B01AC01C301B2010E94821D0E948C
:10096000BE1C6B017C0180918002882319F000E09D
:1009700018EF02C000E010E02CE030E0A501B60165
:100980008CE892E00E94F211AE014D5D5F4FB6011E
:10099000625071098CE892E00E94251561E08CE8B4
:1009A00092E00E942B156FEF7FEF8CE892E00E949F
:1009B000311560918102709182024AE050E08CE82A
:1009C00092E0DF91CF911F910F91FF90EF90DF9018
:1009D000CF90BF90AF907F906F905F904F900C94AE
:1009E0005B0AE0918702F0918802808180538A300F
:1009F00008F072C080918902811103C0DF013AE0E2
:100A000049C0109289028081813319F481E080937A
:100A100080028081803311F41092800240E050E027
:100A200060E070E08CE892E00E94251562E08CE8BE
:100A300092E00E942B1560E070E08CE892E00E944A
:100A400031156BE072E08CE892E00E947A090E9416
:100A500066048091850290918602019690938602A9
:100A60008093850210928B0210928A02E091870295
:100A7000F0918802108261E48EE293E00E94A9095D
:100A800080918502909186020196909386028093D0
:100A9000850222C02D9180ED820F8A3098F440911A
:100AA000810250918202349FC001359F900D112424
:100AB000820F911D27FD9A95C09790938202809393
:100AC0008102E8CF10928B0210928A02108261E4B8
:100AD0008EE293E00E94A909E0918702F0918802DA
:100AE0008081823599F480918302909184020196ED
:100AF000909384028093830210928B0210928A0258
:100B0000108261E48EE293E00E94A909E0918702DD
:100B1000F09188028081853599F4809185029091C9
:100B200086020197909386028093850210928B0231
:100B300010928A02108261E48EE293E00C94A9097B
:100B400008952FEF49E06AE08CE892E00E946A166F
:100B500080E091E00E9410089093880280938702C1
:100B600008950E94CB0640E855E260E070E08EE216
:100B700093E00E94E60C8EE293E00E94B70A40E008
:100B800050E0BA018CE892E00E942B176FEF7FEFE4
:100B90008CE892E00E94F40F80E00E942D070C94F4
:100BA000630A0E94B10540E050E060E070E08CE82C
:100BB00092E00E94251560E070E08CE892E00E94CF
:100BC000311563E08CE892E00E942B158EE293E0F1
:100BD0000E94970A8837910569F061E172E08EE220
:100BE00093E00E94970964E670E080E090E00E9444
:100BF000A506ECCF69E172E08EE293E00E949709CE
:100C00008EE293E00E946B0A892BD1F38EE293E08F
:100C10000E94970A8A3011F08D3039F40E94F10455
:100C20008EE293E00E94B70AEBCF20918A023091C6
:100C30008B022F3F310520F74091870250918802A7
:100C4000FA01E20FF31F808380918A0290918B0258
:100C5000019690938B0280938A02209187023091B3
:100C60008802F901E80FF91F1082CACF1F920F9274
:100C70000FB60F9211242F933F938F939F93AF93AF
:100C8000BF938091C0029091C102A091C202B09125
:100C9000C3023091BF0223E0230F2D3720F40196C9
:100CA000A11DB11D05C026E8230F0296A11DB11D8F
:100CB0002093BF028093C0029093C102A093C2020E
:100CC000B093C3028091C4029091C502A091C60264
:100CD000B091C7020196A11DB11D8093C4029093EB
:100CE000C502A093C602B093C702BF91AF919F9176
:100CF0008F913F912F910F900FBE0F901F901895DD
:100D00003FB7F8948091C4029091C502A091C602A9
:100D1000B091C70226B5A89B05C02F3F19F00196D8
:100D2000A11DB11D3FBFBA2FA92F982F8827820F71
:100D3000911DA11DB11DBC01CD0142E0660F771FC1
:100D4000881F991F4A95D1F70895CF92DF92EF92AD
:100D5000FF92CF93DF936B017C010E948006EB0131
:100D6000C114D104E104F10479F00E9480066C1BE7
:100D70007D0B683E7340A0F381E0C81AD108E108FA
:100D8000F108C851DC4FECCFDF91CF91FF90EF908D
:100D9000DF90CF900895789484B5826084BD84B547
:100DA000816084BD85B5826085BD85B5816085BD66
:100DB000EEE6F0E0808181608083E1E8F0E010827F
:100DC000808182608083808181608083E0E8F0E0C0
:100DD000808181608083E1EBF0E0808184608083AA
:100DE000E0EBF0E0808181608083E1E9F0E08081E8
:100DF00082608083808181608083E0E9F0E080818F
:100E000081608083E1EAF0E080818260808380817C
:100E100081608083E0EAF0E0808181608083E1E2AC
:100E2000F1E0808182608083808181608083E0E264
:100E3000F1E0808181608083EAE7F0E08081846076
:100E400080838081826080838081816080838081D3
:100E5000806880831092C1000895863308F086531D
:100E600090917B00282F2870977F922B90937B0086
:100E700087702091040290E4299F90011124822B15
:100E800080937C0080917A00806480937A008091C6
:100E90007A0086FDFCCF809178002091790090E067
:100EA000922B089590E0FC013197E131F10508F0B3
:100EB0004AC08827EE58FF4F8F4F0C94B51F809182
:100EC00080008F7703C0809180008F7D80938000A9
:100ED000089584B58F7702C084B58F7D84BD089551
:100EE0008091B0008F7703C08091B0008F7D809398
:100EF000B0000895809190008F7707C08091900096
:100F00008F7D03C080919000877F8093900008952B
:100F10008091A0008F7707C08091A0008F7D03C0D3
:100F20008091A000877F8093A00008958091200188
:100F30008F7707C0809120018F7D03C080912001B1
:100F4000877F809320010895CF93DF9390E0FC0189
:100F5000EE55FD4F2491FC01E851FD4F849188230B
:100F600061F190E0880F991FFC01E85BFC4FC5918F
:100F7000D491FC01E25DFC4FA591B491611109C0CF
:100F80009FB7F8948881209582238883EC912E2343
:100F90000BC0623061F49FB7F8943881822F80953E
:100FA00083238883EC912E2B2C939FBF06C08FB791
:100FB000F894E8812E2B28838FBFDF91CF9108957D
:100FC0001F93CF93DF93282F30E0F901E45AFD4FB0
:100FD0008491F901EE55FD4FD491F901E851FD4F8F
:100FE000C491CC23C9F0162F81110E945207EC2F17
:100FF000F0E0EE0FFF1FE25DFC4FA591B4918FB7BB
:10100000F894111105C09C91ED2FE095E92302C0E1
:10101000EC91ED2BEC938FBFDF91CF911F91089551
:10102000CF93DF938230910510F482E090E0E0915D
:101030007205F091730520E030E0C0E0D0E0309719
:1010400011F14081518148175907C0F048175907DD
:1010500061F482819381209719F09B838A832BC04E
:10106000909373058093720526C02115310519F000
:101070004217530718F49A01BE01DF01EF01028005
:10108000F381E02DDCCF2115310509F1281B390B47
:101090002430310590F412968D919C91139761152F
:1010A000710521F0FB019383828304C09093730543
:1010B00080937205FD01329644C0FD01E20FF31FDB
:1010C00081939193225031092D933C933AC0209102
:1010D000700530917105232B41F420910702309166
:1010E000080230937105209370052091050230911C
:1010F00006022115310541F42DB73EB74091090292
:1011000050910A02241B350BE0917005F091710596
:10111000E217F307A0F42E1B3F0B2817390778F0CE
:10112000AC014E5F5F4F2417350748F04E0F5F1F2D
:1011300050937105409370058193919302C0E0E054
:10114000F0E0CF01DF91CF9108950F931F93CF93DC
:10115000DF93009709F48CC0FC013297138212824E
:1011600000917205109173050115110581F420811C
:101170003181820F931F20917005309171052817DE
:10118000390779F5F0937105E093700571C0D801C6
:1011900040E050E0AE17BF0750F412962D913C91FD
:1011A0001397AD012115310509F1D901F3CF9D0147
:1011B000DA013383228360817181860F971F821742
:1011C000930769F4EC0128813981260F371F2E5FC0
:1011D0003F4F318320838A819B8193838283452B78
:1011E00029F4F0937305E093720542C01396FC93C3
:1011F000EE931297ED01499159919E01240F351FED
:10120000E217F30771F480819181840F951F029694
:1012100011969C938E938281938113969C938E93C7
:101220001297E0E0F0E0D80112968D919C9113970F
:10123000009719F0F8018C01F6CF8D919C919801DF
:101240002E5F3F4F820F931F2091700530917105E3
:101250002817390769F4309729F410927305109212
:10126000720502C0138212821093710500937005FB
:10127000DF91CF911F910F910895CF92DF92EF925E
:10128000FF920F931F93CF93DF936C01EB017B01D0
:10129000E40EF51E00E010E0CE15DF0561F0699167
:1012A000D601ED91FC910190F081E02DC6011995D8
:1012B000080F191FF1CFC801DF91CF911F910F9136
:1012C000FF90EF90DF90CF9008956115710579F050
:1012D000FB0101900020E9F73197AF01461B570B46
:1012E000DC01ED91FC910280F381E02D199480E006
:1012F00090E008950C946509DC01ED91FC9101905A
:10130000F081E02D19940F931F93CF93DF93EC019D
:101310006DE00E947C098C016AE0CE010E947C098C
:10132000800F911FDF91CF911F910F9108950F931F
:101330001F93CF93DF93EC010E9465098C01CE01CE
:101340000E948309800F911FDF91CF911F910F9110
:1013500008950F931F93CF93DF93EC010E947C09B4
:101360008C01CE010E948309800F911FDF91CF91E4
:101370001F910F9108958F929F92AF92BF92CF923B
:10138000DF92EF92FF920F931F93CF93DF93CDB72E
:10139000DEB7A1970FB6F894DEBF0FBECDBF6C01CC
:1013A000142FE52FCB01022F19A2223008F40AE0F6
:1013B0007E0121E2E20EF11C802E912CA12CB12C99
:1013C000612F7E2FA50194010E94741F029F1019A6
:1013D000112481E0E81AF1081A3014F4105D01C0FC
:1013E000195CF7011083122FE32FCA01232B242B42
:1013F000252B31F7B701C6010E946509A1960FB6EA
:10140000F894DEBF0FBECDBFDF91CF911F910F913A
:10141000FF90EF90DF90CF90BF90AF909F908F9014
:101420000895CF92DF92EF92FF920F931F93CF9385
:10143000DF93EC016A017B012115310579F4E88124
:10144000F9810190F081E02D642FDF91CF911F9100
:101450000F91FF90EF90DF90CF9019942A303105D3
:10146000E9F477FF1AC06DE20E947C098C014427E1
:101470005527BA014C195D096E097F092AE0CE0192
:101480000E94BB09800F911FDF91CF911F910F9197
:10149000FF90EF90DF90CF9008952AE0B701A6016A
:1014A000CE01DF91CF911F910F91FF90EF90DF90D0
:1014B000CF900C94BB099A01AB01770F660B770BA9
:1014C0000C94110A0895009729F0BC0180E090E087
:1014D0000C94D31B0895FC0124853585F901E05C4B
:1014E000FF4F80819181329620813181821B930B45
:1014F0008F7399270895DC011C96ED91FC911D973F
:10150000DF01A05CBF4F2D913C91119712968D91F8
:101510009C9111972817390739F08D919C91E80F0C
:10152000F91F808190E008958FEF9FEF0895FC01EF
:10153000A485B585FD01E05CFF4F208131813296A5
:10154000808191812817390779F080819181A80FD6
:10155000B91F8C91208131812F5F3F4F2F7333272B
:101560003183208390E008958FEF9FEF0895FC0171
:1015700081A1882329F0A489B5898C9186FFFBCFAE
:1015800011A208950F931F93CF93DF93FC01A685BB
:10159000B7858D01005C1F4FE80188819981019614
:1015A0008F739927AD014E5B5F4FEA012881398126
:1015B00082179307D1F3E80128813981A20FB31F65
:1015C0006C93A685B785A05CBF4F11969C938E93B4
:1015D000A689B7892C9181E090E0078C02C0880F22
:1015E000991F0A94E2F7822B8C9381E081A30488EF
:1015F000F589E02D80818064808381E090E0DF9137
:10160000CF911F910F910895FB01E05CFF4F208166
:1016100031812F5F3F4F2F733327DB01AE5BBF4F0D
:101620004D915C912417350741F040815181DB01D8
:10163000A40FB51F8C933183208308951F920F92BE
:101640000FB60F9211240BB60F922F933F934F9327
:101650005F936F937F938F939F93AF93BF93EF931A
:10166000FF938091C00082FD07C08091C6006CE2AC
:1016700075E00E94040B02C08091C600FF91EF91BB
:10168000BF91AF919F918F917F916F915F914F919A
:101690003F912F910F900BBE0F900FBE0F901F9098
:1016A00018951F920F920FB60F9211240BB60F923E
:1016B0002F933F934F935F936F937F938F939F935A
:1016C000AF93BF93EF93FF938091C80082FD07C053
:1016D0008091CE0064EA74E00E94040B02C0809105
:1016E000CE00FF91EF91BF91AF919F918F917F912C
:1016F0006F915F914F913F912F910F900BBE0F9083
:101700000FBE0F901F9018951F920F920FB60F9259
:1017100011240BB60F922F933F934F935F936F93C8
:101720007F938F939F93AF93BF93EF93FF9380919A
:10173000D00082FD07C08091D6006CE174E00E9469
:10174000040B02C08091D600FF91EF91BF91AF9141
:101750009F918F917F916F915F914F913F912F91C9
:101760000F900BBE0F900FBE0F901F9018951F92F9
:101770000F920FB60F9211240BB60F922F933F9337
:101780004F935F936F937F938F939F93AF93BF9389
:10179000EF93FF938091300182FD07C08091360165
:1017A00064E973E00E94040B02C080913601FF914E
:1017B000EF91BF91AF919F918F917F916F915F91C9
:1017C0004F913F912F910F900BBE0F900FBE0F9036
:1017D0001F9018951F920F920FB60F9211240BB6FF
:1017E0000F922F933F938F939F93EF93FF932091AB
:1017F00028053091290580912A0590912B052817FD
:10180000390731F48091C1008F7D8093C10014C0ED
:10181000E0912A05F0912B05E851FB4F2081809142
:101820002A0590912B0501968F73992790932B058C
:1018300080932A052093C600FF91EF919F918F918D
:101840003F912F910F900BBE0F900FBE0F901F90E6
:1018500018951F920F920FB60F9211240BB60F928C
:101860002F933F938F939F93EF93FF932091A00427
:101870003091A1048091A2049091A3042817390704
:1018800031F48091C9008F7D8093C90014C0E0912C
:10189000A204F091A304E05AFB4F20818091A2049E
:1018A0009091A30401968F7399279093A30480933A
:1018B000A2042093CE00FF91EF919F918F913F91D1
:1018C0002F910F900BBE0F900FBE0F901F90189589
:1018D0001F920F920FB60F9211240BB60F922F93F7
:1018E0003F938F939F93EF93FF9320911804309130
:1018F000190480911A0490911B042817390731F4B8
:101900008091D1008F7D8093D10014C0E0911A04A2
:10191000F0911B04E852FC4F208180911A049091B1
:101920001B0401968F73992790931B0480931A04CC
:101930002093D600FF91EF919F918F913F912F912E
:101940000F900BBE0F900FBE0F901F9018951F9217
:101950000F920FB60F9211240BB60F922F933F9355
:101960008F939F93EF93FF93209190033091910376
:1019700080919203909193032817390731F4809155
:1019800031018F7D8093310114C0E0919203F09179
:101990009303E05BFC4F208180919203909193032D
:1019A00001968F73992790939303809392032093CA
:1019B0003601FF91EF919F918F913F912F910F9061
:1019C0000BBE0F900FBE0F901F901895CF92DF9215
:1019D000EF92FF920F931F93CF93DF93EC016A0175
:1019E0007B014115514E6105710509F1EC89FD89B5
:1019F00081E090E008A002C0880F991F0A94E2F7E6
:101A0000808360E079E08DE390E0A70196010E9479
:101A1000741F89019A010150110921093109369574
:101A2000279517950795980101151041A8F0EC89A5
:101A3000FD89108260E874E88EE190E0A7019601CC
:101A40000E94741FDA01C9010197A109B109B69575
:101A5000A795979587959C01E889F9893083EA894C
:101A6000FB89208319A2EE89FF89408181E090E003
:101A70009C010C8C02C0220F331F0A94E2F7242B26
:101A80002083EE89FF8940819C010D8C02C0220FCA
:101A9000331F0A94E2F7242B2083EE89FF894081CB
:101AA0009C010E8C02C0220F331F0A94E2F7242BF4
:101AB0002083EE89FF8920810F8C02C0880F991F37
:101AC0000A94E2F7809582238083DF91CF911F9162
:101AD0000F91FF90EF90DF90CF900895CF92DF921B
:101AE000EF92FF92EEE2F3E01382128288EEC82EAC
:101AF00083E0D82EE12CF12CC482D582E682F782D5
:101B000064E272E0718360838CE295E0958784875C
:101B100088EE94E09787868785EC90E0918B808BA8
:101B200084EC90E0938B828B80EC90E0958B848B9F
:101B300081EC90E0978B868B82EC90E0918F808F88
:101B400086EC90E0938F828F44E0448F33E0358FB2
:101B500027E0268F95E0978F81E080A3ECE0F3E00B
:101B600013821282C482D582E682F78271836083F7
:101B7000A4EAB4E0B587A487A0E6B4E0B787A68757
:101B8000ADECB0E0B18BA08BACECB0E0B38BA28B32
:101B9000A8ECB0E0B58BA48BA9ECB0E0B78BA68B1A
:101BA000AAECB0E0B18FA08FAEECB0E0B38FA28F03
:101BB000448F358F268F978F80A3EAEEF2E0138251
:101BC0001282C482D582E682F78271836083ACE19F
:101BD000B4E0B587A487A8EDB3E0B787A687A5EDE5
:101BE000B0E0B18BA08BA4EDB0E0B38BA28BA0EDE5
:101BF000B0E0B58BA48BA1EDB0E0B78BA68BA2EDC6
:101C0000B0E0B18FA08FA6EDB0E0B38FA28F448F6C
:101C1000358F268F978F80A3E8ECF2E01382128233
:101C2000C482D582E682F7827183608364E973E0BF
:101C30007587648760E573E07787668765E371E0A1
:101C4000718B608B64E371E0738B628B60E371E096
:101C5000758B648B61E371E0778B668B62E371E077
:101C6000718F608F66E371E0738F628F448F358F61
:101C7000268F978F80A3FF90EF90DF90CF900895ED
:101C80002F923F924F925F926F927F928F929F928C
:101C9000AF92BF92CF92DF92EF92FF920F931F937A
:101CA000CF93DF9300D0CDB7DEB74C017B836A833F
:101CB0006A01590117019801241B350B37FF03C036
:101CC000319521953109C5014A815B81841B950BB2
:101CD00097FF03C091958195910951E0598382172F
:101CE000930714F019820BC09A2D8B2D5801092FE0
:101CF000182F9A818B81DB82CA82C92ED82E8A81C5
:101D00009B81A816B9065CF49C2D8D2D6801092FC6
:101D1000182F9A818B81BB82AA82A92EB82E250109
:101D2000AA81BB814A1A5B0A38016C187D0877FECC
:101D300003C0719461947108720157FE03C0BFEF34
:101D4000EB1AFB0AF594E794C016D1061CF00FEFCE
:101D50001FEF1FC001E010E01CC0D401ED91FC9109
:101D6000B9810084F185E02D9101BB23C1F04A8146
:101D70005B81B601C4011995E618F708F7FE04C0A7
:101D8000C00ED11EE40CF51CEA81FB813196FB8369
:101D9000EA834A815B81A416B506FCF604C0A6015D
:101DA0006A817B81E7CF0F900F900F90DF91CF91E9
:101DB0001F910F91FF90EF90DF90CF90BF90AF9069
:101DC0009F908F907F906F905F904F903F902F905B
:101DD00008950895DC01ED91FC910480F581E02DDA
:101DE00019940F931F93DC01ED91FC91008CF18D00
:101DF000E02D19951F910F9108950F931F93DC010A
:101E0000ED91FC91028CF38DE02D19951F910F91AE
:101E10000895EF92FF920F931F93DC01ED91FC91D7
:101E2000048CF58DE02D19951F910F91FF90EF9087
:101E300008950895AF92BF92CF92DF92EF92FF92F2
:101E40000F931F93CF93DF9300D01F92CDB7DEB7D0
:101E50005C016901DC01ED91FC910680F781E02DC8
:101E60004B835C8369837A831995D501ED91FC914D
:101E70004B815C81C40ED51EB1E0CB1AD10800881D
:101E8000F189E02D7801860169817A819B01C50184
:101E90001995D501ED91FC910288F389E02DC501DA
:101EA0000F900F900F900F90DF91CF911F910F9196
:101EB000FF90EF90DF90CF90BF90AF901994AF92CA
:101EC000BF92CF92DF92EF92FF920F931F93CF9327
:101ED000DF9300D01F92CDB7DEB75C016901DC0152
:101EE000ED91FC910680F781E02D4B835C83698343
:101EF0007A831995D501ED91FC9169817A819B01D5
:101F00002C0D3D1D215031090088F189E02D78010B
:101F10004B815C818A01C5011995D501ED91FC9138
:101F20000288F389E02DC5010F900F900F900F905C
:101F3000DF91CF911F910F91FF90EF90DF90CF90A5
:101F4000BF90AF9019944F925F926F927F928F9251
:101F50009F92AF92BF92CF92DF92EF92FF920F9338
:101F60001F93CF93DF931F921F92CDB7DEB76C0103
:101F70005A0139014801DC01ED91FC910680F7819D
:101F8000E02D69837A8319956981462E7A81572ECF
:101F9000640C751CD601ED91FC91461457046CF449
:101FA0000484F585E02D87019401A501B201C601E5
:101FB0001995BFEF4B1A5B0AEDCF0288F389E02D2C
:101FC000C6010F900F90DF91CF911F910F91FF905D
:101FD000EF90DF90CF90BF90AF909F908F907F90C9
:101FE0006F905F904F901994EF92FF920F931F9311
:101FF000DC01ED91FC9111971A960D911C911B97A4
:1020000018962D913C911997048CF58DE02D7B014C
:1020100040E050E060E070E019951F910F91FF9053
:10202000EF900895CF92DF92EF92FF920F931F935C
:10203000CF93DF9300D000D0CDB7DEB76C01DC01C9
:10204000ED91FC916217730789F4041715072CF4BE
:10205000942F852FA801092F182F041B150B980109
:102060002F5F3F4F008CF18DE02D12C040175107BC
:1020700009F5261737072CF4962F872FB901292F3A
:10208000382F261B370B2F5F3F4F028CF38DE02D2F
:102090008701C601199526960FB6F894DEBF0FBECC
:1020A000CDBFDF91CF911F910F91FF90EF90DF9007
:1020B000CF9008950680F781E02D2D833E834B83DA
:1020C0005C8369837A831995D601ED91FC91008830
:1020D000F189E02D2D813E814B815C8169817A817E
:1020E000C6011995D601ED91FC910288F389E02D86
:1020F000C60126960FB6F894DEBF0FBECDBFDF91A6
:10210000CF911F910F91FF90EF90DF90CF90199496
:102110006F927F928F929F92AF92BF92CF92DF92F7
:10212000EF92FF920F931F93CF93DF93EC014B013C
:102130005A0169013801E881F9810680F781E02DB3
:102140001995E881F9810684F785E02D87019601CC
:10215000A501B401CE011995E881F981A501460DCB
:10216000571D415051090684F785E02D9601B401B1
:10217000CE011995E881F9810484F585E02D93015C
:10218000A501B401CE011995E881F981C80CD91CCB
:10219000B601615071090484F585E02D9301A50114
:1021A000CE011995E881F9810288F389E02DCE01ED
:1021B000DF91CF911F910F91FF90EF90DF90CF9023
:1021C000BF90AF909F908F907F906F9019940895DB
:1021D000FC016370658B8481958126813781613034
:1021E00039F0633029F091878087338722870895FB
:1021F00031872087938782870895FC01138212829A
:1022000084E392E09183808375836483578346835C
:102210007187608753874287158A158614861786CB
:10222000168681E0848B2FEF3FEF338B228B318B2F
:10223000208B868B178A118E108E08952F923F92D5
:102240004F925F926F927F928F929F92AF92BF92C6
:10225000CF92DF92EF92FF920F931F93CF93DF9372
:10226000CDB7DEB728970FB6F894DEBF0FBECDBF4F
:102270005C013B014A0138872F83FC82EB8281E0BD
:1022800090E02C01421A530AC90191958195910958
:102290009C01220F331F3A832983170133E0230E59
:1022A000311CEE24E394F12C802F81708D83027019
:1022B0000E83C7010197EF81F8858E179F070CF0F9
:1022C00078C057FC0CC0AF81B8851197B887AF8331
:1022D000E981FA813296FA83E9834E0E5F1EC701C7
:1022E000880F991F0196480E591EFD81FF2359F151
:1022F000D501ED91FC912F813885220F331F2F5F7F
:102300003F4F8B819C81280F391F0484F585E02D78
:102310008601A401AF81B8854A1B5B0BB701660D2E
:10232000771DC5011995D501ED91FC910484F585C2
:10233000E02D9101A4014E195F096F817885660D2A
:10234000771DC5011995BE81BB2361F1D501ED91C2
:10235000FC912F813885220F331F2F5F3F4F8B81D8
:102360009C81280F391F0484F585E02D8601A40186
:10237000AF81B8854A1B5B0BB3016E197F09C5019C
:102380001995D501ED91FC910484F585E02D91011D
:10239000A4014E195F09B3018F819885681B790BE1
:1023A000C50119959FEFE91AF90AA2E02A0E311C1E
:1023B00080CF28960FB6F894DEBF0FBECDBFDF9159
:1023C000CF911F910F91FF90EF90DF90CF90BF9032
:1023D000AF909F908F907F906F905F904F903F90C5
:1023E0002F9008956F927F928F929F92AF92BF929B
:1023F000CF92DF92EF92FF920F931F93CF93DF93D1
:10240000EC014B013A0159016801E881F98106802C
:10241000F781E02D1995E881F9819501220F331F8D
:102420002F5F3F4FA3014A195B090484F585E02D16
:10243000B401CE011995E12CF12C03E09501A30123
:10244000B401CE010E941E11E881F9810288F3894E
:10245000E02DCE01DF91CF911F910F91FF90EF9072
:10246000DF90CF90BF90AF909F908F907F906F90B4
:1024700019942F923F924F925F926F927F928F9218
:102480009F92AF92BF92CF92DF92EF92FF920F9303
:102490001F93CF93DF93CDB7DEB76C970FB6F89449
:1024A000DEBF0FBECDBF9C8F8B8F5B011A011F83D8
:1024B0000E833701C982DC0158964D915C91599782
:1024C0004115510509F0E5C018968D919C91199719
:1024D000681779070CF0CAC11A968D919C911B97C9
:1024E000281639060CF0C2C18C2C912CFB0136E069
:1024F000C39EE00DF11D1124FB87EA871E161F06FF
:102500000CF0B4C1C40133E0880F991F3A95E1F78C
:102510009D878C87820D931D181619060CF0A6C195
:1025200057968C91811103C0203B08F02F5FAB8D33
:10253000BC8DED91FC9111970680F781E02DCD01C6
:102540002A8F19952A8DB5E02B9F90011124F50152
:102550003596FF87EE872501BB82AA82A9014A1919
:102560005B09598B488BC10108969B8B8A8BE88944
:10257000F989E40DF51DEE59FC4F949198873D8241
:102580002C826101A885A0FF13C0AB8DBC8DED919D
:10259000FC91B981B13031F40084F185E02D2E81B8
:1025A0003F8116C00284F385E02DEE80FF801AC0C3
:1025B000EE81FF816E167F06F1F0AB8DBC8DED9143
:1025C000FC91B981B13051F40084F185E02D930183
:1025D000A601B2018B8D9C8D19950DC00284F385E7
:1025E000E02D7301840194014C815D816A817B81BE
:1025F0008B8D9C8D1995E885E695E8872C813D812A
:10260000280D391D3D832C833FEFC31AD30A4A8915
:102610005B89C416D50609F0B5CF8A819B81880DE8
:10262000991D9B838A839FEF491A590AAE85BF85FE
:102630004A165B0609F09BCFEE81FF816E167F067E
:1026400009F4F2C0EB8DFC8DA081B181F981F130EC
:1026500079F4B5016B5F7F4F1C96ED91FC911D974E
:10266000830128E030E0A1018B8D9C8D1995DCC0A1
:102670006A857B85681979091A96ED91FC911B97FB
:1026800073010C851D859401A1018B8D9C8D19957D
:10269000CBC0FA0134969491329765917491291BBD
:1026A000CB01B7E02B9F800D911D1124FA012591DC
:1026B00034913B8B2A8BFC01459154915B834A8377
:1026C000FC013296C490319654915C8732961491F5
:1026D0003196D4908981823058F0612E012E000C01
:1026E0007708AD2D0D2C000CBB0BB987A88704C053
:1026F00019861886612C712CAB8DBC8DED91FC91E7
:1027000011970680F781E02DCD011995B9818B2EA7
:10271000912C689CC001699C900D789C900D1124AF
:10272000FC01EA0DFB1DF98BE88B1C82712C612CDE
:10273000E12F110FFF0B95012E0F3F1F3B872A87BB
:10274000AC0CB11CA5014E0F5F1F5F8B4E8BC101FE
:102750008D0D911DD7FC9A95998F888F4C856416A5
:1027600008F062C0862D90E048855985480F591FB2
:10277000489D9001499D300D589D300D1124D9017F
:10278000A20DB31DBF87AE87AA84BB844888598831
:10279000DC80BA85DB1AE88DF98DE80FF91FFD8B17
:1027A000EC8B8D2D8A0D2E893F89A216B306B9F1C7
:1027B000877061F48A819B810196EA89FB89AA81ED
:1027C000BB81EA0FFB1F74909B838A8377FE20C036
:1027D000AB8DBC8DED91FC91B981B13061F4008479
:1027E000F185E02D2E813F814C895D89B5018B8D6E
:1027F0009C8D19950DC00284F385E02DEE80FF803D
:10280000840194014E855F85B2018B8D9C8D199555
:10281000770C480C591CEFEFAE1ABE0AC2CF3C81B0
:102820003C0D3C8363949ACFAB8DBC8DED91FC91B4
:1028300011970288F389E02DCD016C960FB6F894BC
:10284000DEBF0FBECDBFDF91CF911F910F91FF90E3
:10285000EF90DF90CF90BF90AF909F908F907F9040
:102860006F905F904F903F902F9019946C960FB699
:10287000F894DEBF0FBECDBFDF91CF911F910F91B6
:10288000FF90EF90DF90CF90BF90AF909F908F9090
:102890007F906F905F904F903F902F900895AF92F0
:1028A000BF92CF92EF92FF920F931F93CF93DF933C
:1028B000EC01262F888D998D009709F040C06A3071
:1028C00059F41D861C862C898E859F8538E0239FB0
:1028D000800D911D112441C06D3009F4AAC08E896C
:1028E0008823C1F03C898C859D8546E0349F800D0E
:1028F000911D112448855985481759075CF41D8698
:102900001C868E859F8548E0349F800D911D112483
:102910009F878E87EA88FB88088919894E855F859D
:102920006C857D85CC88CE010E9439122C898C85DE
:102930009D8536E0239F800D911D112442C06A3091
:1029400079F41D861C862C89FC013696E4918E85CF
:102950009F852E9F800D911D11249F878E8769C0B2
:102960006D3009F466C0FC0134963491631708F4A5
:1029700060C03196E491E61708F45BC0FC01329622
:10298000A590B490462F50E0431B510937E0349F87
:10299000B001359F700D1124A60EB71EF5013296B9
:1029A00034913196E491332311F0E1110DC0F5011A
:1029B0003496E4912C898C859D85E29F800D911D34
:1029C00011249D878C8735C0F501359644915E8929
:1029D000552311F16C89E32FF0E0E40FF11D47FD61
:1029E000FA956E9FD0016F9FB00D11244C855D85C7
:1029F0004A0F5B1FE885F985E417F5076CF41D861F
:102A00001C86FC013696E4918E859F856E9F800D15
:102A1000911D11249F878E87EA88FB880889198970
:102A20004E855F856C857D85CC88CE010E943912EC
:102A3000BECF81E090E0DF91CF911F910F91FF9089
:102A4000EF90CF90BF90AF900895FC017587648799
:102A5000578746870895611101C061E0FC01648BCE
:102A60000895FC01738B628B718B608B0895DC0180
:102A70009C96ED91FC919D979081D1968C91892B9C
:102A800080830895EF92FF920F931F93DC01ED91E5
:102A9000FC910284F385E02D7801890121E030E08A
:102AA00019951F910F91FF90EF900895EF92FF926B
:102AB0000F931F93DC01ED91FC910284F385E02DCF
:102AC000780101E010E019951F910F91FF90EF90B0
:102AD00008950F931F93CF93DF9300D000D0CDB70D
:102AE000DEB78C01DC01ED91FC910680F781E02DD1
:102AF0002D833E834B835C8369837A831995D80148
:102B0000ED91FC910084F185E02D2D813E814B817A
:102B10005C8169817A81C8011995D801ED91FC9198
:102B20000288F389E02DC80126960FB6F894DEBF1F
:102B30000FBECDBFDF91CF911F910F911994EF92EE
:102B4000FF920F931F93CF93DF9300D000D0CDB7A8
:102B5000DEB77C01DC01ED91FC910680F781E02D70
:102B60002D833E834B835C8369837A831995D701D8
:102B7000ED91FC910484F585E02D2D813E814B8102
:102B80005C8169817A81C7011995D701ED91FC912A
:102B90000288F389E02DC70126960FB6F894DEBFB0
:102BA0000FBECDBFDF91CF911F910F91FF90EF909E
:102BB0001994EF92FF920F931F93CF93DF9300D05E
:102BC00000D0CDB7DEB77C01DC01ED91FC91068031
:102BD000F781E02D2D833E834B835C8369837A8369
:102BE0001995D701ED91FC910684F785E02D2D8193
:102BF0003E814B815C8169817A81C7011995D7013A
:102C0000ED91FC910288F389E02DC70126960FB65D
:102C1000F894DEBF0FBECDBFDF91CF911F910F9112
:102C2000FF90EF901994CF92DF92EF92FF920F9363
:102C30001F93CF93DF9300D000D0CDB7DEB76C01E8
:102C4000DC01ED91FC910680F781E02D2D833E8320
:102C50004B835C8369837A831995D601ED91FC914E
:102C60000284F385E02D2D813E814B815C81698159
:102C70007A81C6011995D601ED91FC910288F389FC
:102C8000E02DC60126960FB6F894DEBF0FBECDBF6D
:102C9000DF91CF911F910F91FF90EF90DF90CF9038
:102CA0001994CF93DF93EC0189A187FF09C084E0D9
:102CB0000E94731B81E00E94651B80E00E946E1BD6
:102CC000ECA5FDA5908189A9809589238083DF915A
:102CD000CF910895EF92FF920F931F93CF93DF93BD
:102CE0001F92CDB7DEB77C01062F142F40E451E0D0
:102CF00060EF70E029830E94FD108CE592E0D7011F
:102D000011969C938E935E960C935E975F961C93A0
:102D10005F97298190962C9390978FEF91968C9343
:102D2000919792968C93929793968C939397F701A1
:102D3000128E138E148E158E602F000F770BFB01F1
:102D4000E851FD4F8491E82FF0E0EE0FFF1FE25DA8
:102D5000FC4F859194919D969C938E939C97FB013B
:102D6000EE55FD4FE491D196EC93D197412F110F81
:102D7000550BFA01E851FD4FE491F0E0EE0FFF1F13
:102D8000E25DFC4F85919491F70193A782A7FA0128
:102D9000EE55FD4FE491D296EC93D29799961C9202
:102DA0001E929897D0961C92D09795961C921E9240
:102DB00094979E961C929E9797961C921E92969719
:102DC0009F961C920F90DF91CF911F910F91FF90D2
:102DD000EF900895FC0181A187FF05C06EBD0DB481
:102DE00007FEFDCF089528E030E090E8A4A1B5A14A
:102DF00086A5492F462319F04C91842B03C04C9192
:102E0000809584238C93A0A5B1A54C9180A9809531
:102E100084238C93A0A5B1A54C9180A9842B8C937D
:102E200096952150310911F70895CF93DF93EC0166
:102E3000EAA5FBA590818AA9809589238083CE018C
:102E40000E94EA16EAA5FBA590818AA9892B8083B6
:102E5000DF91CF910895CF93DF93EC014115510598
:102E60006105710521F440E052E16AE770E04A8FA4
:102E70005B8F6C8F7D8F61E08F8D0E94A40760E077
:102E80008F8D0E94E00761E08E8D0E94A40761E0B3
:102E90008E8D0E94E00789A187FD16C061E08AA19E
:102EA0000E94A40760E08AA10E94E00761E089A176
:102EB0000E94A40761E089A10E94E0078BA187FD21
:102EC00003C060E00E94A40789A187FD0E944F1BF8
:102ED00088A187FD21C061E00E94A40761E088A16C
:102EE0000E94E00764E670E080E090E00E94A506A2
:102EF00060E088A10E94E00764E670E080E090E076
:102F00000E94A50661E088A10E94E00768EC70E0DD
:102F100080E090E00E94A506E881F9810680F781B3
:102F2000E02DCE0119956FEECE010E94151763E0DA
:102F3000CE010E94EA1660E8CE010E94EA1662E025
:102F4000CE010E94EA166FECCE010E94151760E0D8
:102F5000CE010E94EA1661ECCE010E94EA1660E3FF
:102F6000CE010E94EA166DEECE010E94151764E6AE
:102F7000CE010E94EA1663E0CE010E94EA1662E1E9
:102F8000CE010E94EA1661E8CE010E94EA1668EEC0
:102F9000CE010E94151765E8CE010E94EA1660E096
:102FA000CE010E94EA1668E7CE010E94EA166BEC99
:102FB000CE010E94151769E3CE010E94EA166CE269
:102FC000CE010E94EA1660E0CE010E94EA1664E398
:102FD000CE010E94EA1662E0CE010E94EA1667EF77
:102FE000CE010E94151760E2CE010E94EA166AEE39
:102FF000CE010E94151760E0CE010E94EA1660E043
:10300000CE010E94EA1660ECCE010E94151763E221
:10301000CE010E94EA1661ECCE010E94151760E114
:10302000CE010E94EA1665ECCE010E9415176EE3F0
:10303000CE010E94EA1668E2CE010E94EA1667EC11
:10304000CE010E94151766E8CE010E94EA1666E3DB
:10305000CE010E94151768E4CE010E94EA1667E3CC
:10306000CE010E94151789A187FF09C01EBC0DB4AF
:1030700007FEFDCF1EBC0DB407FEFDCF08C060E00B
:10308000CE010E94EA1660E0CE010E94EA166AE3D1
:10309000CE010E94151765E5CE010E94EA1661EB8C
:1030A000CE010E94151760E0CE010E94EA1668E189
:1030B000CE010E94EA1666EBCE010E94151768E069
:1030C000CE010E94EA1662E8CE010E94EA1667E28B
:1030D000CE010E94EA1662EFCE010E94151760E051
:1030E000CE010E94EA1666E2CE010E94151761E049
:1030F000CE010E94EA1660EECE010E9415176FE025
:10310000CE010E94EA1661E3CE010E94EA166BE24C
:10311000CE010E94EA166CE0CE010E94EA166EE033
:10312000CE010E94EA1668E0CE010E94EA166EE423
:10313000CE010E94EA1661EFCE010E94EA1667E313
:10314000CE010E94EA1667E0CE010E94EA1660E115
:10315000CE010E94EA1663E0CE010E94EA166EE0FC
:10316000CE010E94EA1669E0CE010E94EA1660E0F4
:10317000CE010E94EA1661EECE010E94151760E0B2
:10318000CE010E94EA166EE0CE010E94EA1664E1CA
:10319000CE010E94EA1663E0CE010E94EA1661E1C8
:1031A000CE010E94EA1667E0CE010E94EA1661E3B2
:1031B000CE010E94EA1661ECCE010E94EA1668E494
:1031C000CE010E94EA1668E0CE010E94EA166FE086
:1031D000CE010E94EA166CE0CE010E94EA1661E37D
:1031E000CE010E94EA1666E3CE010E94EA166FE065
:1031F000CE010E94EA1661E1CE010E94151768E730
:1032000070E080E090E00E94A50669E2CE010E9495
:10321000151768E770E080E090E00E94A506E8815D
:10322000F9810288F389E02DCE01199580EF90E0B5
:103230009987888780E491E09B878A87DF91CF9187
:1032400008951F93CF93DF93EC0163706D8B623011
:10325000C1F0633001F1613051F080EF90E0998767
:10326000888780E491E09B878A8718E41DC080E40A
:1032700091E09987888780EF90E09B878A8718E2A2
:1032800013C080EF90E09987888780E491E09B8766
:103290008A8718E809C080E491E09987888780EFE1
:1032A00090E09B878A8718EEE881F9810680F78194
:1032B000E02DCE01199566E3CE010E941517612F0E
:1032C000CE010E94EA16E881F9810288F389E02D97
:1032D000CE01DF91CF911F9119940F931F93CF933C
:1032E000DF931F92CDB7DEB78C01DC01ED91FC912D
:1032F0000680F781E02D698319956981611102C00B
:1033000060E201C061E2C8010E941517D801ED9189
:10331000FC910288F389E02DC8010F90DF91CF91D5
:103320001F910F9119948F929F92AF92BF92CF925B
:10333000DF92EF92FF920F931F93CF93DF93EC01F5
:10334000490181E0881A9108860E971EC401A0E009
:10335000B0E04B01A12CB12C540199248824882A77
:10336000992AAA2ABB2A680181E0C81AD108C40E8A
:10337000D51EC601A0E0B0E06A01E12CF12C760177
:10338000DD24CC24C82AD92AEA2AFB2A6AE2CE0103
:103390000E94151729A16B2D77278827992727FFCA
:1033A00018C06EBD0DB407FEFDCFC501AA27BB270F
:1033B0008EBD0DB407FEFDCFBB27AB2D9A2D892DF9
:1033C0008EBD0DB407FEFDCF8EBC0DB407FEFDCF44
:1033D00014C0CE010E94EA16B50188279927CE01B4
:1033E0000E94EA1699278B2D7A2D692DCE010E9415
:1033F000EA16682DCE010E94EA166BE2CE010E9409
:10340000151729A16F2D77278827992727FF18C01F
:103410006EBD0DB407FEFDCFC701AA27BB278EBD29
:103420000DB407FEFDCFBB27AF2D9E2D8D2D8EBD7C
:103430000DB407FEFDCFCEBC0DB407FEFDCF14C00A
:10344000CE010E94EA16B70188279927CE010E9473
:10345000EA1699278F2D7E2D6D2DCE010E94EA163A
:103460006C2DCE010E94EA166CE2CE01DF91CF9165
:103470001F910F91FF90EF90DF90CF90BF90AF9092
:103480009F908F900C9415171F93CF93DF93262F47
:10349000FC0131A137FF09C07EBD0DB407FEFDCF91
:1034A0002EBD0DB407FEFDCF0CC0672F122FEC010F
:1034B0000E94EA16612FCE01DF91CF911F910C94EB
:1034C000EA16DF91CF911F910895EF92FF920F932B
:1034D0001F93CF93DF9377FD23C0DC011896ED9106
:1034E000FC9119976E177F07DCF457FD19C01A96E7
:1034F000ED91FC911B974E175F0794F47901EC0155
:1035000001E010E021E030E00E949319B701CE0104
:10351000DF91CF911F910F91FF90EF900C94441A7F
:10352000DF91CF911F910F91FF90EF900895EF924F
:10353000FF921F93CF93DF9300D01F921F92CDB7BE
:10354000DEB77C01162FFC0181A187FF12C0211577
:1035500031054105510549F17EBD0DB407FEFDCF92
:103560001EBD0DB407FEFDCF21503109410951099F
:10357000EECF2115310541055105B9F0672FC7017F
:1035800029833A834B835C837D830E94EA16612FF3
:10359000C7010E94EA1629813A814B815C81215042
:1035A0003109410951097D81E4CF0F900F900F90AF
:1035B0000F900F90DF91CF911F91FF90EF900895A2
:1035C0008F929F92AF92BF92CF92DF92EF92FF9233
:1035D0000F931F93CF93DF935C01FB01E901470138
:1035E000DC0118962D913C911997621773070CF026
:1035F00049C01A968D919C911B97481759070CF05A
:1036000041C06B01CC0EDD1ED60111977A01E00E90
:10361000F11EB70161507109B7FD34C077FD32C0AA
:10362000F7FF03C0E601E0E0F0E057FF03C08701C9
:1036300040E050E0A217B3071CF0E901CE1BDF0BFE
:10364000681779071CF08C01041B150B9E01D8012B
:103650000E94BD1F6B017C01BF01C5010E9493192F
:10366000A7019601B401C501DF91CF911F910F9180
:10367000FF90EF90DF90CF90BF90AF909F908F9092
:103680000C94971ADF91CF911F910F91FF90EF90BB
:10369000DF90CF90BF90AF909F908F90089561E0A2
:1036A00085E30E94E00761E085E30E94A4078CB5F2
:1036B00080618CBD8CB580648CBD61E084E30E9428
:1036C000A40761E083E30C94A407811103C08CB5C7
:1036D000806202C08CB58F7D8CBD08959CB5937FB0
:1036E000892B8CBD08959CB5282F23709C7F922B2D
:1036F0009CBD2DB582FB992790F9822F8E7F892B57
:103700008DBD08958F929F92AF92BF92CF92DF921C
:10371000EF92FF92CF93DF93EC01688179818A81E8
:103720009B81611571058105910521F464E279EDB4
:103730008BE597E02DE133EF41E050E00E94961FCA
:1037400049015A019B01AC01A7EAB1E40E94DB1FC9
:103750006B017C01ACEEB4EFA50194010E94E91F5E
:10376000DC01CB018C0D9D1DAE1DBF1DB7FF03C03D
:103770000197A109B04888839983AA83BB83BC01C0
:10378000CD019F77DF91CF91FF90EF90DF90CF90A9
:10379000BF90AF909F908F9008950C94821B80E013
:1037A00092E00C94821B609300027093010280935C
:1037B0000202909303020895F8940C94EE1F50585F
:1037C000BB27AA270E94F71B0C94481D0E943A1D94
:1037D00038F00E94411D20F039F49F3F19F426F47F
:1037E0000C94371D0EF4E095E7FB0C94311DE92F86
:1037F0000E94591D58F3BA1762077307840795078B
:1038000020F079F4A6F50C947B1D0EF4E0950B2EB8
:10381000BA2FA02D0B01B90190010C01CA01A00122
:103820001124FF27591B99F0593F50F4503E68F17D
:103830001A16F040A22F232F342F4427585FF3CFBE
:10384000469537952795A795F0405395C9F77EF48F
:103850001F16BA0B620B730B840BBAF09150A1F0D8
:10386000FF0FBB1F661F771F881FC2F70EC0BA0F5E
:10387000621F731F841F48F4879577956795B795E6
:10388000F7959E3F08F0B0CF9395880F08F09927E1
:10389000EE0F9795879508950E94601C0C94481D23
:1038A0000E94411D58F00E943A1D40F029F45F3FEC
:1038B00029F00C94311D51110C947C1D0C94371D72
:1038C0000E94591D68F39923B1F3552391F3951B79
:1038D000550BBB27AA2762177307840738F09F5F31
:1038E0005F4F220F331F441FAA1FA9F335D00E2E9E
:1038F0003AF0E0E832D091505040E695001CCAF70B
:103900002BD0FE2F29D0660F771F881FBB1F2617CD
:1039100037074807AB07B0E809F0BB0B802DBF01A4
:10392000FF2793585F4F3AF09E3F510578F00C9473
:10393000311D0C947C1D5F3FE4F3983ED4F38695D3
:1039400077956795B795F7959F5FC9F7880F911D94
:103950009695879597F90895E1E0660F771F881F80
:10396000BB1F621773078407BA0720F0621B730B33
:10397000840BBA0BEE1F88F7E09508950E94C51CD2
:103980006894B1110C947C1D08950E94611D88F00B
:103990009F5798F0B92F9927B751B0F0E1F0660F13
:1039A000771F881F991F1AF0BA95C9F714C0B13054
:1039B00091F00E947B1DB1E008950C947B1D672F50
:1039C000782F8827B85F39F0B93FCCF38695779583
:1039D0006795B395D9F73EF490958095709561956C
:1039E0007F4F8F4F9F4F0895E89409C097FB3EF497
:1039F00090958095709561957F4F8F4F9F4F99233C
:103A0000A9F0F92F96E9BB279395F69587957795B9
:103A10006795B795F111F8CFFAF4BB0F11F460FF79
:103A20001BC06F5F7F4F8F4F9F4F16C0882311F0D1
:103A300096E911C0772321F09EE8872F762F05C0E5
:103A4000662371F096E8862F70E060E02AF09A9580
:103A5000660F771F881FDAF7880F9695879597F975
:103A6000089597F99F6780E870E060E008959FEF00
:103A700080EC089500240A94161617061806090605
:103A8000089500240A9412161306140605060895D4
:103A9000092E0394000C11F4882352F0BB0F40F45C
:103AA000BF2B11F460FF04C06F5F7F4F8F4F9F4F9C
:103AB000089557FD9058440F551F59F05F3F71F01E
:103AC0004795880F97FB991F61F09F3F79F0879585
:103AD0000895121613061406551FF2CF4695F1DF0E
:103AE00008C0161617061806991FF1CF869571059E
:103AF000610508940895E894BB2766277727CB01D2
:103B000097F908950E94951D0C94481D0E943A1D36
:103B100038F00E94411D20F0952311F00C94311DC6
:103B20000C94371D11240C947C1D0E94591D70F3B8
:103B3000959FC1F3950F50E0551F629FF001729F52
:103B4000BB27F00DB11D639FAA27F00DB11DAA1F61
:103B5000649F6627B00DA11D661F829F2227B00DAE
:103B6000A11D621F739FB00DA11D621F839FA00D39
:103B7000611D221F749F3327A00D611D231F849F89
:103B8000600D211D822F762F6A2F11249F575040E0
:103B90009AF0F1F088234AF0EE0FFF1FBB1F661F5B
:103BA000771F881F91505040A9F79E3F510580F024
:103BB0000C94311D0C947C1D5F3FE4F3983ED4F3CC
:103BC000869577956795B795F795E7959F5FC1F7C8
:103BD000FE2B880F911D9695879597F90895FA0108
:103BE000EE0FFF1F309621053105A1F1611571051A
:103BF00061F48038BFE39B0749F1689490388105F0
:103C000061F08038BFEF9B0741F099234AF5FF3FF1
:103C1000E1053105210519F1E8940894E795D901EA
:103C2000AA2329F4AB2FBE2FF85FD0F310C0FF5F9B
:103C300070F4A695E0F7F73950F019F0FF3A38F430
:103C40009F779F930DD00F9007FC9058089546F0F2
:103C50000C94371D60E070E080E89FE308954FE723
:103C60009F775F934F933F932F930E94EA1E2F916C
:103C70003F914F915F910E94821D0C94471E29F441
:103C800016F00C94311D0C947B1D0C94371D0E9472
:103C9000611DA8F39638A0F707F80F92E8942BE37C
:103CA0003AEA48EB5FE70E94981D0F920F920F923D
:103CB0004DB75EB70F920E94321FE6E0F1E00E941E
:103CC000791E4F915F91EF91FF91E595EE1FFF1FD8
:103CD00049F0FE57E0684427EE0F441FFA95E1F7DC
:103CE0004195550B0E94AC1E0F9007FE0C94A01E30
:103CF0000895DF93CF931F930F93FF92EF92DF927C
:103D00007B018C01689406C0DA2EEF010E94951D9C
:103D1000FE01E894A5912591359145915591A6F321
:103D2000EF010E94F71BFE019701A801DA9469F7E1
:103D3000DF90EF90FF900F911F91CF91DF91089549
:103D40009B01AC0160E070E080E89FE30C944C1CA8
:103D50000C94311D0C94661F0E94611DD8F39923A9
:103D6000C9F3940F511DA3F39150504094F059F0B2
:103D7000882332F0660F771F881F91505040C1F79B
:103D80009E3F51052CF7880F911D9695879597F9C1
:103D900008955F3FACF0983E9CF0BB2786957795E1
:103DA0006795B79508F4B1609395C1F7BB0F58F7C5
:103DB00011F460FFE8CF6F5F7F4F8F4F9F4FE3CFCE
:103DC0000C947C1D16F00C94661F0C94371D68949F
:103DD0000C94311D0E94611DA8F39923C1F3AEF329
:103DE000DF93CF931F930F93FF92C92FDD27882373
:103DF0002AF02197660F771F881FDAF720E030E05E
:103E000040E85FEB9FE3883920F0803E38F0219650
:103E10008F770E94E01BEEE2F1E004C00E94E01BFD
:103E2000EBE5F1E00E94791E8B01BE01EC01FB2E57
:103E30006F5771097595771F880B990B0E94F61CB7
:103E400028E132E741E35FE30E94951DAF2D980121
:103E5000AE01FF900F911F91CF91DF910E94F71B50
:103E60000C94481DFA01DC01AA0FBB1F9B01AC0199
:103E7000BF5728F4222733274427507820C0B75152
:103E800090F4AB2F0024469537952795011CA395F8
:103E9000D2F3002071F0220F331F441FB395DAF3E1
:103EA0000ED00C94DF1B61307105A0E88A07B9467B
:103EB00030F49B01AC0166277727882790783096ED
:103EC00021F0208331834283538308959F3F31F053
:103ED000915020F4879577956795B795880F911D38
:103EE0009695879597F90895A1E21A2EAA1BBB1BF8
:103EF000FD010DC0AA1FBB1FEE1FFF1FA217B307B6
:103F0000E407F50720F0A21BB30BE40BF50B661FCB
:103F1000771F881F991F1A9469F76095709580958F
:103F200090959B01AC01BD01CF010895052E97FB33
:103F30001EF400940E94AD1F57FD07D00E94741F0D
:103F400007FC03D04EF40C94AD1F5095409530956E
:103F500021953F4F4F4F5F4F0895909580957095F5
:103F600061957F4F8F4F9F4F0895EE0FFF1F881F62
:103F70008BBF0790F691E02D19940E94C51F332343
:103F800012F48A1B9B0B0C94D61FA29FB001B39F07
:103F9000C001A39F700D811D1124911DB29F700D52
:103FA000811D1124911D08950E94C51FB7FF08951A
:103FB000821B930B08950E94C51FA59F900DB49F6F
:103FC000900DA49F800D911D11240895B7FF0C94AE
:103FD000DB1F0E94DB1F821B930B0895F894FFCF19
:103FE000010000000100007405800068656C6C6FC2
:103FF0000050484153453031007468616E6B730066
:1040000000000000C20A3D096B0A970A7B0AB70A42
:10401000000000004F143D09620AE90EEA0E090F84
:10402000F10EFD0E400E190FE810E7101A0F5F0F8A
:10403000A30FF40F12108810000000004F143D0968
:1040400069155116651AE01A42155615400E3715B6
:1040500021196D199F15D9151316F40F1210881018
:00000001FF
